:100000000C94EF030C940C040C940C040C940C044E
:100010000C940C040C940C040C940C040C940C0420
:100020000C940C040C940C040C94FF160C943B16CA
:100030000C94F1220C940C040C940C040C940C04FD
:100040000C940C040C940C040C940C040C940C04F0
:100050000C940C040C947F220C940C040C940C044F
:100060000C940C040C940C040C940C040C940C04D0
:100070000C940C040C940C040C940C040C940C04C0
:100080000C940C040C940C040C940C040C940C04B0
:100090000C940C040C940C040C940C040C940C04A0
:1000A0000C940C040C940C040C940C043D075F0796
:1000B000640769076E07730778077D07820787075C
:1000C0008C070A059307960799079C079F070C055D
:1000D000A207A707420842087C087C08C708E30873
:1000E000AC0A0C0B2509030A140A140A050C080CA7
:1000F0000B0C0E0C110C140C170C970F9C0FA60F69
:100100009A0F9F0FA40FA20F7E14A5141316A51407
:100110001316ED1410151316CC15E015AF25AF25E9
:10012000C225C225B825C225C225C225AF25AF25C7
:10013000BD25C225C225BD252E002B00E000E10013
:10014000354100001E00140004001D61085DE2003E
:100150001F001A0016001B00E1042A0020000800FE
:100160000700060000412C002100150009001900BD
:10017000E3004A00220017000A0005000000656441
:10018000290001000000E200000001002900010038
:100190000000E3000000E20023001C000B0011003F
:1001A00000002961240018000D0010002E414B00B2
:1001B00025000C000E003600350228002600120033
:1001C0000F0037002F00E70027001300334238717B
:1001D00030004E002D00310034682C080151000021
:1001E0002900010001000062010000003A001E0227
:1001F000200222022E000E5D3B001F02210223027C
:1002000001002A003C002F0226022F0001002C00D2
:100210003D0030022702300001000D5D3E0031023A
:10022000350035020000C35C010001000000010040
:1002300000000C5D01000100000001000000C25C34
:100240003F0052005100240200000B5D40002400DA
:1002500021001E00010001004100250022001F00B6
:100260003700280042002600230020002700E70076
:10027000430025022E0231002E00010044004500FB
:100280000100010001000000010001000100010067
:100290000100000001000100010001000100010057
:1002A00001000100F2000100010001000100F00066
:1002B000F1000100F400010001000100F300010061
:1002C000F500010001000100010001000000010033
:1002D0000100010000000100000001000100010018
:1002E0000000010000000100010001000100010008
:1002F000000001000100010001000100A90001004F
:10030000010001000100AC00AA00B60001000100DC
:100310000100AB00A8000100010001000100010084
:1003200001000100005C0100AE00010001000000BE
:1003300000010101010101010101020202020202A8
:10034000020202030303030303030304040404047B
:100350000404050505050506060606060707070742
:100360000708080808090909090A0A0A0B0B0B0CF7
:100370000C0C0D0D0D0E0E0E0F0F0F101011111194
:100380001212131314141515161617171818191915
:100390001A1A1B1B1C1D1D1E1E1F2020212222237A
:1003A0002424252626272829292A2B2C2D2D2E2FBB
:1003B00030313232333435363738393A3B3C3D3ED2
:1003C0003F404142434445464748494A4C4D4E4FC1
:1003D00050515354555658595A5B5D5E5F61626483
:1003E000656668696B6C6D6F7072737577787A7B10
:1003F0007D7E8082838587888A8C8E8F9193959667
:10040000989A9C9EA0A2A3A5A7A9ABADAFB1B3B586
:10041000B7BABCBEC0C2C4C6C9CBCDCFD1D4D6D862
:10042000DBDDDFE2E4E7E9EBEEF0F3F5F8FAFDFF00
:100430000A00000000000306B200080001000000EE
:10044000A800080002000200A000140003005749A1
:100450004E555342000000000000000000008400E0
:10046000040007002A00440065007600690063006C
:10047000650049006E00740065007200660061004E
:100480006300650047005500490044007300000008
:1004900050007B0039004400420037004600310024
:1004A000460044002D0037004500370041002D0074
:1004B00034003000300038002D00390033003600A1
:1004C00042002D003600420041003600430031005A
:1004D0003900410033003000380063007D00000027
:1004E00000001B0301636F6E6669677572652E6598
:1004F00072676F646F782D657A2E636F6D000501EA
:100500000902A10185020901A100050919012905B6
:10051000150025019505750181029501750381017D
:100520000501093009311581257F9502750881067D
:1005300009381581257F950175088106050C0A3853
:10054000021581257F950175088106C0C005010946
:1005500080A10185031A81002A8300160100260369
:1005600000950175108100C0050C0901A1018504E9
:100570001A01002A9C02160100269C0295017510A2
:100580008100C005010906A1018505050719E029BB
:10059000E715002501950875018102050719002955
:1005A000EF1500250195F075018102050819012953
:1005B00005950575019102950175039101C005012D
:1005C0000906A101050719E029E71500250195088D
:1005D000750181029501750881010507190029FF40
:1005E000150026FF009506750881000508190129E8
:1005F00005950575019102950175039101C00902E8
:100600005200030100A0FA090400000103010100E7
:100610000921110100012240000705810308000A99
:100620000904010001030000000921110100012259
:10063000C0000705820320000A0904020002FF002F
:10064000000007058303400005070504034000057B
:100650001201100200000008EDFE07130100010264
:100660000301040330000000160345007200670018
:100670006F0064006F007800200045005A00000001
:1006800008035A0053004100000004030904050F49
:100690003900021C100500DF60DDD88945C74C9C7D
:1006A000D2659D9E648A9F00000306B20045001833
:1006B00010050038B60834A909A0478BFDA076883C
:1006C00015B6650001420000047F3F1F64321464C8
:1006D0003214783C1E1E140A05FFAA7F55402223BF
:1006E000252628292A2C2D2F3032333536383A3B0F
:1006F0003D3E4042434547494A4C4E505153555761
:10070000595A5C5E6062646668696B6D6F7173757F
:1007100077797B7D7F81838587898A8C8E9092947F
:1007200096989A9C9E9FA1A3A5A7A8AAACAEAFB18C
:10073000B3B4B6B8B9BBBCBEBFC1C2C3C5C6C7C9D6
:10074000CACBCCCDCED0D1D2D2D3D4D5D6D7D7D890
:10075000D9D9DADADBDBDBDCDCDCDCDCDDDDDDDDE2
:10076000DCDCDCDCDCDBDBDBDADAD9D9D8D7D7D6EA
:10077000D5D4D3D2D2D1D0CECDCCCBCAC9C7C6C5A1
:10078000C3C2C1BFBEBCBBB9B8B6B4B3B1AFAEACE7
:10079000AAA8A7A5A3A19F9E9C9A98969492908E92
:1007A0008C8A89878583817F7D7B79777573716F6B
:1007B0006D6B6968666462605E5C5A595755535147
:1007C000504E4C4A4947454342403E3D3B3A3836FD
:1007D000353332302F2D2C2A292826252322112487
:1007E0001FBECFEFDAE0DEBFCDBF12E0A0E0B1E088
:1007F000E4E6F8E502C005900D92AA32B107D9F7F8
:1008000023E0AAE2B2E001C01D92A63BB207E1F7E5
:100810000E940D190C94302C0C9400004F925F92A2
:100820006F927F929F92AF92BF92CF92DF92EF92A0
:10083000FF920F931F93CF93DF93CDB7DEB72A9725
:100840000FB6F894DEBF0FBECDBFFC010081F18072
:1008500083819481892B39F01FEFF11206C091E05A
:100860000F3F19F403C091E001C090E090FDF4C681
:100870006F0185E0DE01119601900D928A95E1F7F6
:10088000F601228189819A81222349F00E949824CD
:10089000182F682F89819A810E94122503C00E9417
:1008A000E524182F24E5129FF001112436E0F39E71
:1008B000E00DF11D1124E00FF11DEE0FFF1FE85CAC
:1008C000FE4F059114918091BD02882319F080910B
:1008D000BE0202C080E090E080FF15C01E82F601DB
:1008E0008281882311F081E101C082E18F83F601CA
:1008F00080818887818189878EEF8A8765E0CE0134
:1009000006960E943521F60182810930FDE51F0718
:1009100009F040C0882309F483C09091720281E0FD
:10092000890F8770987F853020F4892B809372021D
:1009300002C0909372028091720287702FEF829FA3
:10094000C001112495958795959587959927909342
:1009500089008093880090938B0080938A00909305
:100960008D0080938C0040917202509173026091CF
:100970007402709175028FE090E00E94982A609155
:10098000B9027091BA028091BB029091BC020E94A0
:100990007D0F46C00C303DE5130799F028F40B306D
:1009A000EDE51E0751F03CC00D30FDE51F07B1F02D
:1009B0000E302DE5120709F133C0882309F44CC627
:1009C00029C0882309F448C60E94EF0C81E00E94E8
:1009D000EC0C21E04FEF6FEF8CEA0CC0882309F498
:1009E0003BC60E94EF0C81E00E94EC0C21E040E845
:1009F0006FEF86E50E940C202FC6882309F42CC6D1
:100A00000E94EF0C81E00E94EC0C21E04FEF6FEFB1
:100A10008BE1F0CF81E001C088E10E94EC0C1CC6A4
:100A2000F6018281882319F1033E3CE51307C1F0EA
:100A300050F4013E9CE5190781F0023EECE51E07EB
:100A4000B1F481E010C0043EFCE51F0759F0053EFB
:100A50002CE5120761F484E006C010926E0205C016
:100A600082E001C083E080936E020E94C90D17FFEF
:100A700071C0F6018281882309F46CC080916D03F6
:100A800080932A0210926D0380916E02813071F082
:100A900048F08230C1F08430E1F486EE0E94B5283F
:100AA00088E115C082EE0E942F2913C083E00E94C6
:100AB000962888E10E942F2988E10E94C82883E0B7
:100AC0000E948B2806C082EE0E942F2987E50E9493
:100AD000B5288FE39CE90197F1F700C000005801A9
:100AE000E894B7F82CE0E22EF12CC5010E2C02C0E0
:100AF000969587950A94E2F7282F2F7041F0822F60
:100B000090E02A3010F44D9604C0069702C087E2A8
:100B100090E00E94B52894E0E91AF108ECEFEE1697
:100B2000EFEFFE0611F780916E02813039F040F050
:100B3000823031F0843051F488E206C08CE204C087
:100B400082EE0E94C82802C00E94B52880912A0225
:100B500080936D03033FFCE51F0729F180F4083DF6
:100B60003CE51307C9F0093D8CE5180741F1073D45
:100B70009CE5190739F526E241EE61EE10C0053F0C
:100B8000ECE51E07C1F098F0063F2CE51207D1F402
:100B900027E245EE66EE03C027E245EE65EEC601AC
:100BA0000E94A82059C526E241EE60EEF8CF27E268
:100BB00045EE64EEF4CF26E241EE62EEF0CF28E29D
:100BC00041E0ECCFF6019281992309F439C11092EA
:100BD0002B020230FCE51F0708F41CC106312CE58E
:100BE000120738F098012A5F3C452730310508F09C
:100BF00011C10E94772390938502809384020F3065
:100C00003CE5130709F4CFC008F042C008309CE56A
:100C1000190709F4A8C0F0F40430FCE51F0709F433
:100C200090C068F402303CE5130709F486C0033035
:100C30001C4509F0DFC0809184028260D9C0063073
:100C40009CE5190709F487C008F089C080918402E7
:100C50008860CEC00B30FCE51F0709F495C068F42E
:100C600009303CE5130709F482C00A301C4509F03D
:100C7000C1C080918402886080C00D309CE5190756
:100C800009F486C008F087C0809184028D7FB0C0CF
:100C90000A3FFCE51F0709F457C050F502313CE557
:100CA000130709F488C068F400319CE5190709F4BA
:100CB0007EC001311C4509F09DC0809184028F7B6C
:100CC00097C00431FCE51F0709F487C008F479C018
:100CD00005311C4509F08EC08091840282FB2227D9
:100CE00020F991E0922790FB82F990FB83F980C074
:100CF0000D3F8CE5180709F452C058F40B3FECE5A2
:100D00001E0729F10C3F1C4509F074C08091850233
:100D100060C00F3F2CE5120709F458C080F101159F
:100D20001D4509F067C080918502982F90959170BC
:100D30008E7F892B90FB81F94DC080918402816068
:100D400057C08091840219C0809185021BC0809198
:100D5000850282603FC080918402806149C0809199
:100D60008402806245C080918402806441C00E94F8
:100D700076288091840280683BC0846039C080916D
:100D800085028260816026C0809184028E7F30C09F
:100D90008091840219C080918402877F29C080914C
:100DA00085028D7F17C0809184028F7E21C0809143
:100DB00084028F7D1DC00E947628809184028F77E7
:100DC00017C080918402877F8B7F12C0809185023B
:100DD0008D7F8E7F809385020DC00E947628809142
:100DE000840287FB222720F991E0922790FB87F964
:100DF00080938402609184021091850284E090E0E7
:100E00000E94862A612F81E290E00E94862A0E9439
:100E1000762822C480916D030631FCE51F0709F591
:100E20008A7A91E009F490E090932C02882311F0E3
:100E300065E301C069E283E193E00E9442230EC0B2
:100E400006311C4509F0DAC080912C02882309F490
:100E500001C465E383E193E00E941A230E945224B7
:100E6000FBC38272F801E25CFC45E431F10508F055
:100E700070C0EA5AFF4F0C94F02A8091370280FF2D
:100E80001BC08E7F809337026091370270913802C9
:100E90008091390290913A020E947D0C10929F023B
:100EA0009FEFE0E7F2E09150E040F040E1F700C052
:100EB00000000E949610D0C30E94EF0CCDC347EFF4
:100EC0005CE060E07DE02CC040E05DE067EF7CE04E
:100ED00027C045EB5BE06EEB7BE022C04EEB5BE0B6
:100EE00065EB7BE01DC04DE95BE069EA7BE018C083
:100EF00049EA5BE06DE97BE013C045E85BE061E94E
:100F00007BE00EC041E95BE065E87BE009C04FE8AB
:100F10005CE060EA7CE004C040EA5CE06FE87CE012
:100F20000E94B31F99C365E082E00EC068E086E0CE
:100F30000BC06EE089E008C064E18FE005C067E1A6
:100F400085E102C062E289E10E94A21F85C383E2BB
:100F500064CD0E3D2CE5120709F446C008303DE58E
:100F6000130709F444C001151C4509F047C00E944D
:100F700076289FEFE4E3FCE09150E040F040E1F799
:100F800000C00000F89481E08093E00080E280934C
:100F9000D8001092C9008FE19EE40197F1F700C0DC
:100FA00000001DBA109268001CBC10BE1FBA10923F
:100FB0007A0010926E0010926F00109271001092E1
:100FC00072001092C9001092BC0014B817B81AB879
:100FD0001DB810BA1092BC0015B818B81BB81EB8CE
:100FE00011BA0C94003F38C30E94882335C39091F6
:100FF000BF0281E089278093BF022EC3F6010081E2
:101000001181992349F0C8010E949824F82E682F75
:10101000C8010E94122504C0C8010E94E524F82ED0
:10102000B8018F2D0E94CF0D8C01B82EF601E580FE
:10103000E2949FE0E922F280F11010926C0380911B
:101040006A03877079F0FF2069F080E2800F8830B2
:1010500048F082E00E94632580916A038770AA2489
:10106000A3948111A12C912E92948FE09822892D26
:1010700090E08C30910508F0CFC2FC01E659FF4F9B
:101080000C94F02A812F807F1F70882311F0129515
:10109000107FFF20B9F0112309F448C280E2800FCD
:1010A000883010F0B11006C080916D03182B10939A
:1010B0006D0305C080916C03182B10936C030E9484
:1010C000522434C2802F0E94C828112309F4A4C2DC
:1010D000005E1095083010F0B11006C080916D03CD
:1010E000182310936D0305C080916C03182310938F
:1010F0006C030E94522490C2812F807F1F70803227
:1011000011F01295107FBB2021F0F1E0BF16E1F045
:1011100028C0FF2081F080916E03EE2051F001E0A5
:10112000E01207C0182B181709F476C210936E034B
:1011300073C2812B10C0EE2021F021E0E21609F4E9
:101140006BC20E944C241FC0FF2041F031E03E15CD
:1011500008F462C2812F0E94AB285EC2E1105CC21B
:1011600012C0FF2019F0EE20A9F3E0C1EE2059F0E3
:10117000093309F0EDC18FEF97EEE3E08150904025
:10118000E040E1F7E3C1812F0E94A02845C2812FF2
:1011900086958695837019F0813059F03DC2FF2005
:1011A00019F0C801937002C080E090E00E94801F97
:1011B00039C2FF2019F0C801937002C080E090E0AE
:1011C0000E946A1F2FC2FF20F9F0053F51F0063F31
:1011D00071F0043FA9F480912D0290912E0281605C
:1011E0000BC080912D0290912E02826005C08091EB
:1011F0002D0290912E02846090932E0280932D02F6
:10120000802F0E9417221EC0053F51F0063F71F04B
:10121000043FA9F480912D0290912E028E7F0BC085
:1012200080912D0290912E028D7F05C080912D021C
:1012300090912E028B7F90932E0280932D02802F0F
:101240000E944D210E94DB22EDC1812F837009F0A5
:1012500069C0F110E5C1902F929596959770990FFE
:10126000990F802F8F70482E512C612C712C092ED4
:1012700004C0440C551C661C771C0A94D2F704FF6A
:1012800012C04FE050E060E070E004C0440F551F12
:10129000661F771F9A95D2F7DB01CA01809590955A
:1012A000A095B09503C080E090E0DC0116951695FE
:1012B000412F4370423019F1C8F400916F0310912F
:1012C00070032091710330917203413059F08429E9
:1012D0009529A629B729BC01CD016023712382235A
:1012E00093230AC0402A512A622A732ABC01CD01E5
:1012F00064297529862997290E941E2691C184296F
:101300009529A629B72900916F03109170032091A8
:10131000710330917203BC01CD01602771278227D0
:101320009327EACFFF2019F0812F817001C08695A5
:10133000882309F475C1902F929596959770990F0F
:10134000990F802F8F70482E512C612C712C092EF3
:1013500004C0440C551C661C771C0A94D2F704FF89
:1013600012C04FE050E060E070E004C0440F551F31
:10137000661F771F9A95D2F7DB01CA018095909579
:10138000A095B09503C080E090E0DC01169516951D
:10139000412F43704230D9F068F50091B9021091A5
:1013A000BA022091BB023091BC02413059F084292D
:1013B0009529A629B729BC01CD0160237123822379
:1013C00093231EC0402A512A622A732A13C08429FB
:1013D0009529A629B7290091B9021091BA02209146
:1013E000BB023091BC02BC01CD016027712782276E
:1013F000932706C0BC01CD01642975298629972948
:101400000E94E1250DC11F70FF2039F0812F0E943D
:101410007C25802F0E94AB2803C1802F0E94A0282A
:10142000812F0E943E25FCC0802FF2EFBF1609F4E9
:101430003EC0FB1538F020EFB21661F031EFB31665
:1014400089F16FC093EFB916C9F1E4EFBE1609F444
:101450004CC067C0FF2009F1E110DEC01F7181E0C0
:1014600090E0A0E0B0E0AC01BD0104C0440F551F06
:10147000661F771F1A95D2F78091B9029091BA0230
:10148000A091BB02B091BC028A019B0108271927D9
:101490002A273B27C901B80125C021E02E1508F4F1
:1014A000BBC0DCCFFF2029F0812F8F712CC0FF2023
:1014B000D9F3812F8F710E943E25AEC0FF2079F0B5
:1014C0001F7181E090E0A0E0B0E0BC01CD0104C05C
:1014D000660F771F881F991F1A95D2F703C060E027
:1014E00070E0CB010E94E12597C0FF2079F01F71C9
:1014F000812F0E947C2538E0139FC0011124836056
:1015000080936A03812F0E947C2586C081E00E941F
:10151000632581E08E1508F07FC082E00E9463257C
:101520007BC0FF2039F0EE2009F4BECF802F0E944F
:101530002F2972C0EE2009F4BCCF893349F49FEF04
:10154000E7EEF3E09150E040F040E1F700C000002A
:10155000802F0E94C82860C012EFB116E1F01B1561
:1015600038F020EFB21669F031EFB31611F12BC04D
:1015700084EFB816C9F0B81660F095EFB91671F09F
:1015800022C0FF2009F44EC09091790381E08927A1
:1015900008C081E0F826F092790344C0F11042C0FF
:1015A00081E0809379033EC0F1103CC01092790332
:1015B00039C0FF2029F080917803882329F329C0BE
:1015C000EE2011F32FC080917803EE20C1F0882324
:1015D00041F09091790381E08927809379031092FB
:1015E0007803802FFF2019F00E942F291BC00E9432
:1015F000C82886E0F60111928A95E9F713C088237E
:1016000089F0F1100FC09091790381E089278093D0
:1016100079031092780306C088EF890D843010F4A6
:101620000E94961FAA20C1F080916A0380FD14C019
:10163000F60112828595859585950E947C25C601C7
:101640000E940E0480916A038595859585950E9478
:101650003E2502C069E2FECB2A960FB6F894DEBFA3
:101660000FBECDBFDF91CF911F910F91FF90EF90F3
:10167000DF90CF90BF90AF909F907F906F905F90E2
:101680004F9008959091840292FF0DC0282F2871E9
:10169000283019F4877F846006C0282F24712430F5
:1016A00011F48B7F886093FF0DC0282F287128319B
:1016B00019F4877E846106C0282F2471243111F427
:1016C0008B7E88612091850220FF0DC0382F3871F4
:1016D000383019F4877F816006C0382F317131307E
:1016E00011F48E7F886021FF0DC0282F28712831CA
:1016F00019F4877E816106C0282F2171213111F4F0
:101700008E7E886194FD877E0895E7E3F2E0438151
:101710002CE0421B08F440E021E0628181810C94BE
:101720000C20E7E3F2E043812CE0420F08F44FEF96
:1017300021E0628181810C940C20E7E3F2E0628178
:101740002FEF621B08F460E021E0438181810C945B
:101750000C20E7E3F2E062812FEF620F08F46FEFF5
:1017600021E0438181810C940C20E7E3F2E0818148
:1017700021E0438162818C500C940C20E7E3F2E07D
:10178000818121E043816281845F0C940C20CF939E
:10179000E82F873080F58091070190910801892B0F
:1017A00009F047C0CE2F64E670E080E40E94C229B1
:1017B0009093080180930701892BD1F464E670E0CF
:1017C00082E10E94192A9093080180930701892BD6
:1017D00079F481E090E001C0880FCA95EAF764E6E9
:1017E00070E080950E94192A909308018093070168
:1017F000CF910C946E2A90E0FC013797E730F10509
:10180000C0F4EA58FF4F0C94F02A209A289811C08F
:10181000219A29980EC0229A2A980BC0239A2B98B5
:1018200008C0529A5A9805C0539A5B9802C03E9AD3
:101830004698CF910895CF93873008F03FC08091AC
:10184000070190910801892B09F041C064E670E01E
:1018500080E40E94C2299093080180930701892B9C
:1018600011F0C0E027C064E670E083E10E94192A0D
:101870009093080180930701892B99F764E670E043
:1018800081E40E94C2299093080180930701892B6B
:1018900041F784E690E00E94492A97FF05C09093A3
:1018A000080180930701DDCFC82FC0951092080171
:1018B000109207010E946E2A8C2F0AC09FB18FB12F
:1018C000807F869586959370892B809501C080E0F6
:1018D000CF91089580913702282F269530E0211569
:1018E000310519F48170826005C02532310524F07C
:1018F00081708864809337020895CF92DF92EF92CF
:10190000FF926B017C010E946A0CB701A60188E07E
:1019100090E0FF90EF90DF90CF900C94982A809108
:101920003B02882319F0815080933B02609137027B
:10193000709138028091390290913A020C947D0C9A
:1019400080913B02833018F48F5F80933B0260915B
:101950003702709138028091390290913A020C94CA
:101960007D0C9091370290FF36C09170811102C0BA
:10197000926006C0853210F0986402C0880F982BE0
:1019800090933702662351F06091370270913802CC
:101990008091390290913A020E947D0C6091370249
:1019A000669570E04BE050E083E191E00E94232CCB
:1019B000892B19F010929F0202C00E941C2181E025
:1019C00080939B0220E040913A026091390280911D
:1019D00038020C940C20089561E00C94B10CE7E3FC
:1019E000F2E080818160808386950C94EC0C80917C
:1019F00037028695815009F484E261E00C94B10CC1
:101A00008091370286958F5F853208F081E061E032
:101A10000C94B10CE7E3F2E083E0808311828FEF56
:101A200082838383148260817181828193810C948B
:101A30007D0CBF92CF92DF92EF92FF920F931F9394
:101A4000CF93DF93E82EF62EE901E42FF0E0611149
:101A500006C0E05DFC4F8491B82EE82F71C0262FA0
:101A600030E0E05DFC4FE491FE2FCE2ED12C46E01D
:101A7000849FC00111240FEF10E0B8010E94C82A12
:101A80004BEA4603C001479F900D11248E0D911D16
:101A90008E0D911D982F990F890FD801A21BB30BA2
:101AA000AC9DA001AD9D500DBC9D500D1124B52ED7
:101AB000F89ED0011124AB2FBB277801EA1AFB0A4C
:101AC000EC9CD001ED9CB00DFC9CB00D1124780174
:101AD000E81AF108E29EC001E39E900DF29E900D7F
:101AE0001124892F9927081B190B0C9D90010D9D1E
:101AF000300D1C9D300D1124832F6230710591F043
:101B000048F461157105E1F061307105B9F48E2F6B
:101B1000EB2F16C06430710569F040F06630710536
:101B200079F00CC08E2FE52FB32E0AC0E52FBF2E03
:101B30008B2F06C0852FBE2EE32F02C0852FBB2E14
:101B4000E9838883BA821B82DF91CF911F910F9125
:101B5000FF90EF90DF90CF90BF900895CF93DF93E9
:101B600000D000D0CDB7DEB79091370290FF0AC009
:101B70009E012F5F3F4F0E94190D4B8169818A8121
:101B80000E94B91F0F900F900F900F90DF91CF918F
:101B9000089560916E028CE090E00C94862ACF93B9
:101BA000DF9324E5829FC0011124FC0146E0749F6D
:101BB000E00DF11D1124E60FF11DEE0FFF1FE85C93
:101BC000FE4FC591D491CE01C238D10569F1B0F470
:101BD000C133D10509F475C048F4C932D10509F4FF
:101BE00069C0CA32D10509F473C085C0C533D105B7
:101BF00009F459C0C933D105B9F07DC0C33ED10540
:101C000071F138F4C03ED105B1F0C23ED10511F1F9
:101C100072C0C63ED105B9F1C73ED105C9F1C43E77
:101C2000D10509F068C024C02091840220FD5DC068
:101C300021FD5BC060C02091840220FD50C0209136
:101C4000850220FF57C18091840284FD51C183EE3B
:101C500090E050C12091840222FF4CC1F4CF8091CA
:101C6000840282FD3FC08091850280FD3EC0EBCFA3
:101C70002091850221FF3EC18091840284FD38C1FC
:101C800087EE90E037C12091840223FF33C1F4CF67
:101C90008091840283FD2CC08091850281FFECCF6E
:101CA00084EE90E027C12091840225FF23C189E2C0
:101CB00090E020C12091840225FF1CC185E390E0C3
:101CC00019C12091840226FF15C18AE290E012C159
:101CD0002091840226FF0EC181E390E00BC189E3CD
:101CE00090E008C182EE90E005C180EE90E002C174
:101CF00086EE90E0FFC0C11552E5D50708F075C02B
:101D0000C11521E5D20728F09C2F8827816F906AA2
:101D1000F1C0C83ED10570F5C03ED10508F0EAC05B
:101D2000C83AD105B8F4C53AD10550F08C2F855A80
:101D3000C82FD0E0C750DE4F888190E09064DAC0B1
:101D4000C130D10509F4D6C008F4D2C0249708F4F4
:101D5000CFC0D0C0CF3BD10508F0CAC08C2F885A65
:101D6000C82FD0E0CC0FDD1FC450DE4F8881998191
:101D70009464C0C0C11540E2D40760F4C11551E0BD
:101D8000D50708F0B7C0C03FD10508F4B1C0CE01F7
:101D90009065B0C0C11580E4D80708F4A9C0C1158A
:101DA00020E5D20720F4CE019F70906AA3C0CE0137
:101DB000F4E096958795FA95E1F7282F23703C2F4C
:101DC000337081E090E002C0880F991F3A95E2F7E6
:101DD0009C68922B2C2F2F702695269550E2259FDC
:101DE00090011124822B932B85C0C11546E5D407A1
:101DF00008F03FC0C11555E5D50748F08C2F0E946B
:101E0000420B8F7190E0982F8827906273C0C115A4
:101E100084E5D80728F09C2F8827846F906A6AC0D1
:101E20009E01237033279C2F96959695C115D34517
:101E300080F441E050E002C0440F551F2A95E2F7BC
:101E400080E2989F90011124CA01822B932B9C68F9
:101E500051C041E050E002C0440F551F2A95E2F7FF
:101E600080E2989F90011124CA01822B932B9A68DB
:101E700041C0C1155AE5D50778F5C11589E5D807E0
:101E800010F18C2F8F700E94420B9E0194E03695CA
:101E900027959A95E1F72F7030E0322F222730698D
:101EA000A901482B0EC090568115904208F58D2F40
:101EB0008F710E94420B9E01332730628F71A901FE
:101EC000582BCA0117C0C11528E5D20788F09C2FEE
:101ED0008827806F906A0EC0C1154BE5D40740F08B
:101EE000CE01C1155CE5D507F0F69927906602C0D2
:101EF00080E090E0DF91CF910895CF92DF92EF9252
:101F0000FF926B017C010E94FC2356985E982598F5
:101F10002D9826982E9827982F9890E0FC013197BD
:101F2000E730F105A8F4E358FF4F0C94F02A259A06
:101F30002D9A0EC0259A2D9A269A2E9A09C0259A76
:101F40002D9A04C0259A2D9A269A2E9A279A2F9A6E
:101F5000C701B601FF90EF90DF90CF90089580E227
:101F600090E09093080180930701809135028111E0
:101F70000EC00E94BC2981E0809335022FEF83EDD3
:101F800090E3215080409040E1F700C0000064E6FB
:101F900070E080E40E94C2299093080180930701B9
:101FA000892B09F04EC064E670E080E00E94192A97
:101FB0009093080180930701892B09F042C064E6E1
:101FC00070E080E00E94192A909308018093070135
:101FD000892BB9F564E670E08FE30E94192A90938B
:101FE000080180930701892B61F50E946E2A64E63F
:101FF00070E080E40E94C229909308018093070159
:10200000892BF9F464E670E08CE00E94192A909321
:10201000080180930701892BA1F464E670E080E059
:102020000E94192A9093080180930701892B49F493
:1020300064E670E08FE30E94192A90930801809370
:1020400007010E946E2A809107010895CF93DF93C4
:1020500056985E9825982D9826982E9827982F9810
:10206000C8E8D0E08FEF90E099838883AAE8B0E0D9
:1020700011969C938E93ECE8F0E091838083259AEF
:102080002D9A2FEF80E792E0215080409040E1F7B9
:1020900000C00000269A2E9A2FEF80E792E0215090
:1020A00080409040E1F700C00000279A2F9A2FEF60
:1020B00080E792E0215080409040E1F700C00000AE
:1020C00025982D982FEF80E792E021508040904096
:1020D000E1F700C0000026982E982FEF80E792E0ED
:1020E000215080409040E1F700C0000027982F98D1
:1020F0008091720287702FEF829FC0011124959505
:1021000087959595879599279983888311969C93B0
:102110008E939183808356985E9825982D98269863
:102120002E9827982F98DF91CF910895EF92FF92E4
:102130000F931F93CF93DF938091370280FF08C0E6
:1021400003EC12E08FEFE82E82E0F82EF8010CC0CD
:10215000E3ECF2E01182108212821382349682E064
:10216000EF3FF807B9F7ECCF928120813181892FB9
:10217000291708F4822F381708F4832F8383381B1C
:102180003183281B2083981B92833496EE16FF061A
:1021900059F70E94BC2964E670E084E80E94C229D5
:1021A000C3ECD2E064E670E088810E94192A64E6FC
:1021B00070E089810E94192A64E670E08A810E9499
:1021C000192A64E670E08B810E94192A2496EC1685
:1021D000FD0641F70E946E2A579A8BB18F779BB10B
:1021E00090682FB7F894E016F10699F0F801319154
:1021F0008F0148E09BB9000000C037FF8BB9330F57
:10220000000000C000C000C08BB900C04A9591F723
:10221000EACF2FBF8FE391E00197F1F700C00000F4
:10222000DF91CF911F910F91FF90EF90089584B1AE
:10223000807F84B985B1807F85B98AB1837F8AB96F
:102240008BB1837F8BB93E984698089580B38C708C
:1022500080BB81B3836F81BB0895BF92CF92DF9221
:10226000EF92FF920F931F93CF93DF93809107011B
:1022700090910801892B91F0809134028F5F8093B7
:10228000340281110BC00E94AF0F90E090930801BF
:1022900080930701892B11F40E94261096E7E92EFE
:1022A00092E0F92E8701C0E0B12C87E0C82ECC0E59
:1022B0008C2F0E94C70B8C2D0E94C70B8C2F0E9465
:1022C0001B0CF8019081891721F08083DD24D394C1
:1022D00001C0D12C8C2D0E941B0CF801978189170D
:1022E00019F0878381E001C080E0D82ABD280E94D0
:1022F0001711CF5F0F5F1F4FC730B9F60E94CF2273
:102300006AEF70E00E94C82A9C01682F8091300219
:102310008823E9F110923002E0916C02F0916D0295
:10232000DF011E9690E07BEF0AEF10E080818B3F8B
:10233000A9F0482F50E0681728F06901C41AD50A9F
:10234000A60106C0E801C41BD50BAE01420F531F06
:102350004E31510514F0708301C091E03196EA17B7
:10236000FB0721F790933002B11002C0911111C008
:1023700010922F02E0916C02F0916D029091300268
:10238000AAE8B2E0AF01425F5F4F80E00FC0B1103A
:10239000EFCF80912F028111EBCF2091BF0280916E
:1023A000320290913302211119C057C0E7012991DF
:1023B0007E013C91321741F030813B3F21F4608334
:1023C0002C9391E001C081E031961196E417F50756
:1023D00069F79093300280932F02DFCF892B31F47D
:1023E00025982D9826982E9827982F98809132021C
:1023F000909133029170892B79F480913102882376
:1024000019F026982E9802C0269A2E9A90913102A1
:1024100081E08927809331028091320290913302CA
:102420008130984780F01092BF026091B90270919C
:10243000BA028091BB029091BC020E947D0F109263
:10244000330210923202809132029091330201964F
:10245000909333028093320210C0892B71F0109256
:102460003302109232026091B9027091BA028091E7
:10247000BB029091BC020E947D0F8B2DDF91CF910A
:102480001F910F91FF90EF90DF90CF90BF90089534
:102490008091640287FF11C08091E80082FD05C031
:1024A000809162028111F8CF11C08091E8008B7792
:1024B0000BC080916202882349F08091E80080FF80
:1024C000F8CF8091E8008E778093E8000895982FE8
:1024D000973068F59093E900981739F07091EC0007
:1024E0002091ED005091F00003C0242F762F50E092
:1024F00021FD02C09F5FECCF3091EB003E7F309317
:10250000EB003091ED003D7F3093ED003091EB001A
:1025100031603093EB007093EC002093ED0050930A
:10252000F0002091EE0027FDE5CF80E008958F7048
:102530008093E90081E0089520916A0230916B0256
:102540002617370748F06115710539F42091E80026
:102550002E772093E80001C0B901FC0120E061154D
:10256000710591F180916202882309F440C08530A1
:1025700009F43FC08091E80083FD3DC08091E800F0
:1025800082FD2FC08091E80080FFE9CF2091F30009
:102590008091F20090E0922B6115710559F088301E
:1025A000910540F424912093F10031966150710916
:1025B0000196F2CF21E0089709F020E08091E80031
:1025C0008E778093E800CBCF2111CCCF0AC08091C9
:1025D0006202882361F0853061F08091E80083FD1C
:1025E0000AC08091E80082FFF2CF80E0089582E087
:1025F000089583E0089581E0089520916A02309162
:102600006B022617370748F06115710539F42091E0
:10261000E8002E772093E80001C0B901FC0120E01A
:102620006115710579F1809162028823F1F185309D
:10263000F1F18091E80083FD3CC08091E80082FDCB
:102640002EC08091E80080FFEBCF2091F3008091B5
:10265000F20090E0922B6115710551F088309105E0
:1026600038F421912093F100615071090196F3CF64
:1026700021E0089709F020E08091E8008E778093B0
:10268000E800CECF2111CFCF0AC08091620288230B
:1026900061F0853061F08091E80083FD0AC080918F
:1026A000E80082FFF2CF80E0089582E0089583E0A1
:1026B000089581E008951F93CF93DF93CDB7DEB7E0
:1026C000AA970FB6F894DEBF0FBECDBFE4E6F2E0E6
:1026D0008091F100819322E0EC36F207C9F78091F6
:1026E00065028930B9F150F4823009F4A5C0833015
:1026F00009F45FC0813009F0EEC00CC08B3009F4E2
:1027000070C008F488C0823409F4AEC0853409F47E
:10271000C5C0E1C080916402813A09F0DCC08091BB
:10272000E800877F8093E8008091680290916902B9
:10273000892B21F460E280E492E003C060E080E055
:1027400090E070E00E94FD128091E8008B7780930A
:10275000E800C1C080916402813209F0BCC0809160
:10276000680290916902029708F0B5C08091E80074
:10277000877F8093E8008091E80082FD05C080910A
:1027800062028111F8CFA7C02091F3008091F2007E
:1027900090E0922B029729F48091F1008B7F813099
:1027A00021F48091F10080933F028091E8008B77C3
:1027B00058C080916402813A09F08DC0809168020E
:1027C00090916902892B09F086C08091E800877F8B
:1027D0008093E8008091E80080FFFCCF80910601A3
:1027E0003BC080916402813209F075C0809168021B
:1027F00090916902892B09F06EC08091E800877F73
:102800008093E8000E94481280916602809306013E
:102810000E94762860C080916402813209F05BC01A
:102820008091E800877F8093E8000E9448128091A1
:10283000670280933E024FC080916402813A09F0A2
:102840004AC08091E800877F8093E8008091E8008B
:1028500080FFFCCF80913E028093F1008091E800E0
:102860008E778093E8002FC080916402803C99F5B8
:102870008091680290916902029741F58091660209
:1028800090916702892B11F58091E800877F8093F2
:10289000E8006BE170E082EE94E013C08091640286
:1028A000803CC9F48091680290916902079771F4A5
:1028B0008091E800877F8093E80062EB70E080E31E
:1028C00094E00E949C120E94481205C08091EB0087
:1028D00080628093EB008091E80083FFA4C1809127
:1028E000640290916502492F50E04A30510508F08A
:1028F0009AC1FA01EC57FF4F0C94F02A803821F06E
:10290000823809F090C108C0809160029091610204
:10291000992389F082600FC0809168028F708730A0
:1029200008F081C18093E9008091EB0085FB882746
:1029300080F91092E9009091E800977F9093E80069
:102940008093F1001092F10033C1282F2D7F09F000
:102950006AC1882319F0823061F065C180916602F6
:10296000813009F060C1933009F080E0809361020A
:102970002EC08091660281112AC0809168028F70FA
:102980002FEF280F263008F04EC18093E9002091E8
:10299000EB0020FF1CC0933021F48091EB0080629B
:1029A00014C09091EB0090619093EB0021E030E037
:1029B000A90102C0440F551F8A95E2F74093EA002F
:1029C0001092EA008091EB0088608093EB001092F7
:1029D000E9008091E800877FEEC0811124C1109149
:1029E00066021F778091E3008078812B8093E3005B
:1029F0008091E800877F8093E8000E9448128091D0
:102A0000E80080FFFCCF8091E30080688093E300C2
:102A1000111102C082E001C083E08093620203C111
:102A20008058823008F0FFC0809166029091670262
:102A30008C3D53E0950779F583E08A838AE28983A8
:102A40004FB7F894DE01139620E03EE051E2E32F09
:102A5000F0E050935700E49120FF03C0E295EF703F
:102A60003F5FEF708E2F90E0EA3010F0C79601C004
:102A7000C0968D939D932F5F243149F74FBF80916E
:102A8000E800877F8093E8006AE270E0CE0101965B
:102A90000E94FD127BC04091680250916902292F6B
:102AA00033272330310511F168F42130310509F461
:102AB000C9C02230310509F0B6C062E570E08EEF82
:102AC00095E05DC02132310509F43BC02232310569
:102AD00009F444C02F30310509F0A5C0E0E9F6E063
:102AE000E4916E2F70E08EE896E045C09927813022
:102AF0009105B9F070F082309105D9F0039709F093
:102B000092C0E2E6F6E0E4916E2F70E082E696E095
:102B100032C0EAE8F6E0E4916E2F70E08AE896E0D1
:102B20002AC0E0E8F6E0E4916E2F70E080E896E0DD
:102B300022C0E8E6F6E0E4916E2F70E088E696E0C9
:102B40001AC04115510509F482C04130510509F000
:102B50006AC069E070E089E296E011C04115510554
:102B600009F47AC04130510509F05DC060EC70E0B5
:102B70008EEF94E004C06115710509F454C02091F2
:102B8000E800277F2093E8000E949C128091E800D3
:102B90008B778093E80047C0803809F044C080916B
:102BA000E800877F8093E800809163028093F100C2
:102BB0008091E8008E778093E8000E94481233C02D
:102BC000811131C080916602909167029927029726
:102BD00054F58091E800877F8093E80010916602A9
:102BE000109363020E944812111106C08091E30005
:102BF00087FD02C081E001C084E08093620242E070
:102C000061EC81E00E94671242E261EC82E00E9486
:102C1000671242E361EC83E00E94671242E360ECDA
:102C200084E00E9467128091E80083FF1AC08091BF
:102C3000E800877F8093E8008091EB0080628093BA
:102C4000EB000FC062E170E080E596E098CF69E0AC
:102C500070E080E196E093CF60E470E08EEB95E069
:102C60008ECFAA960FB6F894DEBF0FBECDBFDF9110
:102C7000CF911F9108951F920F920FB60F921124BA
:102C80002F933F934F935F936F937F938F939F9374
:102C9000AF93BF93CF93DF93EF93FF93C091E9007E
:102CA000CF708091EC00D82FD17080FDD0E81092C9
:102CB000E9008091F000877F8093F00078940E9473
:102CC0005B131092E9008091F00088608093F0001F
:102CD000CD2BCF70C093E900FF91EF91DF91CF91A1
:102CE000BF91AF919F918F917F916F915F914F9124
:102CF0003F912F910F900FBE0F901F901895E8ED08
:102D0000F0E080818E7F80831092E2001092DA00E2
:102D10001092E100A0EEB0E08C9181608C938081F4
:102D20008F77808319BCA7EDB0E08C918E7F8C9358
:102D300080818F7E8083109236020895CF92DF9239
:102D4000EF92FF920F931F93CF93DF93C8EDD0E0E4
:102D500088818F7E8883E7EDF0E0808181608083C9
:102D600084E082BF81E08093360288818E7F8883F1
:102D700002EE10E0F80110821092DA0081EEC82E07
:102D8000D12CF601108288818F77888388818068B2
:102D9000888388818F7D888319BC1092620210928B
:102DA0006302109261021092600290EEE92EF12C03
:102DB000F70180818B7F808388818160888342E0F6
:102DC00060E080E00E946712F60180818E7F808340
:102DD000F801808181608083808188608083F70131
:102DE00080818E7F8083888180618883DF91CF910D
:102DF0001F910F91FF90EF90DF90CF9008951F9259
:102E00000F920FB60F9211242F933F934F935F931E
:102E10006F937F938F939F93AF93BF93EF93FF93A2
:102E20008091E10082FF09C08091E20082FF05C02D
:102E30008091E1008B7F8093E1008091DA0080FF38
:102E40002AC08091D80080FF26C08091DA008E7F52
:102E50008093DA008091D90080FF18C080E189BD9D
:102E600082E189BD09B400FEFDCF81E0809362025A
:102E70008091360281110FC00E947F160E949E161B
:102E80008091E20084608093E20005C019BC10923A
:102E90006202109236028091E10080FF17C080919B
:102EA000E20080FF13C08091E2008E7F8093E200F9
:102EB0008091E20080618093E2008091D80080627E
:102EC0008093D80019BC85E0809362028091E10074
:102ED00084FF43C08091E20084FF3FC080E189BD50
:102EE00082E189BD09B400FEFDCF8091D8008F7DBD
:102EF0008093D8008091E1008F7E8093E1008091E3
:102F0000E2008F7E8093E2008091E20081608093F6
:102F1000E20080916302882311F084E007C0809171
:102F2000E30087FD02C081E001C083E0809362027C
:102F30000E9476280E94961F10923D0280913C02CA
:102F4000882349F08091370281608093370260E0E6
:102F500086950E94B10C0E941C218091E10083FFA4
:102F600027C08091E20083FF23C08091E100877F2A
:102F70008093E10082E0809362021092630280916C
:102F8000E1008E7F8093E1008091E2008E7F80934C
:102F9000E2008091E20080618093E20042E060E024
:102FA00080E00E9467128091F00088608093F000BA
:102FB000FF91EF91BF91AF919F918F917F916F9111
:102FC0005F914F913F912F910F900FBE0F901F90E7
:102FD00018952091E4003091E50095E64091EC00D1
:102FE000842F817040FF23C08091E80080FD1DC0C8
:102FF00080916202882399F0853099F08091EB00EE
:1030000085FD11C04091E4005091E500241735077B
:1030100029F3915011F09A01E1CF84E0089582E004
:10302000089583E0089581E0089580E00895409137
:10303000E80042FFDDCF0895EF92FF920F931F93B8
:10304000CF93DF937C018B010E94E917811119C096
:10305000E70101151105A1F08091E80085FD0AC086
:103060008091E8008E778093E8000E94E91788231A
:1030700081F307C089918093F10001501109E9CFD4
:1030800080E0DF91CF911F910F91FF90EF90089515
:1030900080916202843011F081E0089582E0089509
:1030A000CF93DF9300D01F92CDB7DEB7909162022D
:1030B000943019F589837B836A8382E08093E900E9
:1030C0008FEF9091E800815095FD06C095ED9A959F
:1030D000F1F700008111F5CF8091E80085FF0DC068
:1030E00040E050E063E070E0CE0101960E941C18C1
:1030F0008091E8008E778093E8000F900F900F90FA
:10310000DF91CF910895CF93DF93EC010E9448188F
:10311000823011F0843031F4BE0184E0DF91CF9130
:103120000C945018DF91CF910895BC01605871093B
:1031300083E00C945018CF93DF93EC010E94481861
:10314000823011F08430F9F482E08093E9008FEF4F
:103150009091E800815095FD06C095ED9A95F1F7A4
:1031600000008111F5CF8091E80085FF0CC040E0A0
:1031700050E066E070E0CE010E941C188091E800EB
:103180008E778093E800DF91CF910895CF93DF93FE
:10319000EC010E944818823011F08430D9F58091FA
:1031A0000601882339F08091840287FF03C060E222
:1031B00082E002C068E081E08093E9008FEF9091A7
:1031C000E800815095FD06C095ED9A95F1F7000055
:1031D0008111F5CF8091E80085FF1CC08091060128
:1031E000811105C040E050E068E070E003C070E08D
:1031F00040E050E0CE010E941C188091E8008E77DC
:103200008093E80080E2FE01A0E4B2E001900D921C
:103210008A95E1F7DF91CF910895CF93DF93CDB7F2
:10322000DEB7C955D1090FB6F894DEBF0FBECDBFCA
:1032300084B7877F84BF0FB6F894A895809160000B
:10324000886180936000109260000FBE90E080E87B
:103250000FB6F89480936100909361000FBE85B71C
:10326000806885BF85B7806885BF0E947F160E94F1
:103270009E168091E20084608093E20078948091B1
:1032800062028823A1F01091E9001F709091EC0078
:10329000892F817090FD80E8182B1092E9008091B1
:1032A000E80083FD0E945B131F701093E90082E029
:1032B00084BD93E095BD9AEF97BD80936E000E9408
:1032C000AF0F90E090930801809307010E941711BF
:1032D0000E942611A6E7B2E0EAE8F2E011921D9200
:1032E00022E0E839F207D1F78EE090E00E94022B4D
:1032F00080936C0290936D02FC010E962BEF21934C
:103300008E179F07E1F780E090E00E94802A8F3EB1
:103310009E4F11F00E9488238CE090E00E94722A58
:1033200090E0A0E0B0E080936E0290936F02A093D3
:103330007002B093710289EA8093800089E08093E3
:10334000810024982C983F988AB18F7C8AB96E9816
:10335000479A8BB180638BB9769A8FE090E00E9498
:103360007A2A60937202709373028093740290932E
:10337000750267704FEF649FB001112475956795D2
:10338000759567957727709389006093880070938F
:103390008B0060938A0070938D0060938C000E9474
:1033A000261080E090E00E94802A8F3E9E4F11F010
:1033B0000E94882382E090E00E94722A8093AA02F1
:1033C0000E947723909385028093840283E090E0AB
:1033D0000E94722A682F70E080E090E00E941E2612
:1033E00080918602811136C080E090E00E94802AA0
:1033F0008F3E9E4F21F00E9488230E940A0D88E094
:1034000090E00E947A2A609337027093380280938A
:10341000390290933A026E7F71F40E940A0D88E09F
:1034200090E00E947A2A609337027093380280936A
:10343000390290933A020E946A0C10929F02809186
:10344000370280FF04C060E086950E94B10C81E0E5
:10345000809386026091B9027091BA028091BB029A
:103460009091BC020E947D0F89E091E090938802C8
:1034700080938702F1E4EF2EF12CEC0EFD1E22E08A
:10348000E20EF11CA7ECCA2EA6E0DA2E80916202B1
:10349000853009F069C080916202843009F441C02E
:1034A0001092890220E488E190E00FB6F894A89584
:1034B000809360000FBE2093600010929F02809165
:1034C0003D02811117C081E080933D028091370257
:1034D000982F917090933C028E7F809337023FEF3C
:1034E00040E782E0315040408040E1F700C00000FA
:1034F0000E94961083B7817F846083BF83B7816009
:1035000083BF7894889583B78E7F83BF0FB6F89476
:10351000A89580916000886180936000109260009F
:103520000FBE80916102882309F4B0CF0E94AF0FD3
:1035300090E090930801809307010E9417110E9468
:103540002611EAE8F2E0119292E0E839F907D9F79A
:103550000E942D11EAE8F2E08191811141C222E03E
:10356000E839F207C9F792CF0E942D11EBEAF2E099
:10357000AAE8B2E000E010E0302F2D91919192275F
:10358000A1F180E0BB24B3944B2D492351F1619606
:103590008FAF619762963FAF62972B2181E009F46C
:1035A00080E063968FAF63970E94CF228160782F6F
:1035B00065969FAF8EAF659761964FAD61976296A6
:1035C0005FAD629763966FAD639765968FAD6597B4
:1035D0000E948F1EF801E555FD4F8081B826B0820C
:1035E0002AC08F5FBB0C863079F60F5F1F4F0E30FD
:1035F000110509F0C1CF8FEF66968FAF669767967A
:103600008FAF679768961FAE68970E94CF22816040
:10361000782F6A969FAF8EAF6A9766964FAD669782
:1036200067965FAD679768966FAD68976A968FAD3E
:103630006A970E948F1E80919F02882309F499C087
:1036400080919E02E0913702E695E81BE0939A0292
:10365000823059F4F0E0EB52F94FE4910E2F10E074
:10366000EBE7AE2EEEE1BE2E58C0863059F4F0E006
:10367000EE52F94FE4910E2F10E07BE6A72E7EE18B
:10368000B72E4BC0893061F4E695F0E0E153F94F75
:10369000E4910E2F10E066E1A62E6DE1B62E3DC03E
:1036A0008F3061F4E695F0E0E453F94FE4910E2F8A
:1036B00010E05DEFA52E5DE1B52E2FC0853159F4E8
:1036C000F0E0E753F94FE4910E2F10E04DEAA42EFD
:1036D0004DE1B42E22C0883199F0833241F4F601D5
:1036E000059114913BECA32E3FE1B32E16C084321A
:1036F00071F404EF11E020E4A22E2DE1B22E0DC0F2
:1037000008EE13E09AE7A92E9DE1B92E06C000ED60
:1037100017E085E1A82E8DE1B82E80919B028823C9
:1037200089F010929B020E94CF229801209530953B
:10373000820F931F909399028093980210929D029A
:1037400010929C0280919802909199020E94A52269
:103750008017910770F0E0919802F09199020E0F96
:103760001F1F109399020093980288E992E0F501D7
:1037700009958091A7029091A8020E94A5229C0120
:103780009091A602992321F02431310508F478C0E4
:103790008091A2021091A30281110BC0111141C1AD
:1037A0002091A40221113DC12091A502211139C10E
:1037B00067C09F3F19F09F5F9093A602181624F4EC
:1037C0000E94F4218093A2028091A20287FF05C08B
:1037D0000E94F42181958093A202111624F40E9484
:1037E000F4218093A3028091A30287FF05C00E9469
:1037F000F42181958093A3023091A2023323E1F05A
:103800002091A3022223C1F045EB3403C00111240F
:10381000992319F09093A20203C081E08093A20241
:1038200035EB2303C0011124992319F09093A302CF
:1038300003C081E08093A3028091A402181624F4AF
:103840000E94D2218093A4028091A40287FF05C028
:103850000E94D22181958093A4028091A50218161E
:1038600024F40E94D2218093A5028091A50287FFB3
:1038700005C00E94D22181958093A5020E94DB227F
:103880000E94961F9091A902891721F00E94961F0D
:103890008093A90280916202843009F0F7CD809371
:1038A000E9008091E80082FFF1CD8091E80085FF7A
:1038B00021C00E94E91781111BC000E410E0CE0175
:1038C00001965C0108C08091F100F50181935F01D0
:1038D0000150110969F08091E80085FDF4CF8091D5
:1038E000E8008B778093E8000E94E917882399F31A
:1038F00091E001C090E08091E8008B778093E80030
:10390000992309F4C3CD1981111115C08091BF020B
:10391000882361F11092BF0281E08093BE0222965B
:103920001FAE229723961FAE23978EEF24968FAF5C
:10393000249763E070C01130C9F422961FAE22971D
:1039400023961FAF23978CE0E0E2F1E0D7010190CE
:103950000D928A95E1F78EEF60968FAF60976FE0DA
:10396000CE018F5B9F4F0E94352190CD8091BE028A
:103970008823A1F1123019F0133091F047C0609103
:10398000B9027091BA028091BB029091BC020E9470
:10399000FC2322961FAE229723961FAF239715C0B4
:1039A0008A81813039F040F0823081F581E0809366
:1039B000BD0202C01092BD0222961FAE229783E084
:1039C00023968FAF23978091BD0224968FAF2497C3
:1039D0008EEF25968FAF259764E01DC08FEF17C03F
:1039E00080E189BD82E189BD09B400FEFDCF8091EF
:1039F000D8008F7D8093D8008091E0008260809312
:103A0000E0008091E00081FDFCCF40CD81E0229676
:103A10008FAF229761E0CE018F5B9F4F0E943521CF
:103A200035CD9F3F09F0C7CED8CE0895EF92FF92D3
:103A30001F93CF93DF93EC0183ECE82E82E0F82E06
:103A400010E08C81970140913A0260913902810F18
:103A50000E94190D1F5E84E0E80EF11C1F3F89F7DC
:103A60000E9496109A818C8190FF02C08F5F01C0E6
:103A700081508C83DF91CF911F91FF90EF9008953B
:103A8000EF92FF920F931F93CF93DF938C01C3ECC0
:103A9000D2E0E12CF12CF8018481F7E0EF16F1047B
:103AA0001CF4882339F002C0811104C09E014091AA
:103AB0003A0202C09E0140E06091390280913802D2
:103AC0000E94190D8FEFE81AF80A24969FE0E91674
:103AD000F10409F70E949610F801848190E00196A4
:103AE000817099278483DF91CF911F910F91FF906F
:103AF000EF900895EF92FF920F931F93CF93DF9370
:103B0000EC018C819D810196817099279D838C8326
:103B100083ECE82E82E0F82E10E005E5212F2695B3
:103B20008C819D81820F911D8170970140913A0295
:103B300060913902809F802D11240E94190D1F5F12
:103B400084E0E80EF11C1F3049F7DF91CF911F91FF
:103B50000F91FF90EF900C9496100F931F93CF93BB
:103B6000DF93C3ECD2E0FE01118210821282138235
:103B7000349682E0EF3FF807B9F700E010E080915B
:103B8000C102082E000C990B0817190794F08091B8
:103B90001F01082E000C990B8017910754F09E010D
:103BA00040913A0260913902809138020E94190DC9
:103BB00004C0198218821A821B820F5F1F4F24963D
:103BC0000F301105E1F60E94961080911E01909130
:103BD000C102980F9093C10220911F01280F2093DA
:103BE0001F01121614F49E301CF0819580931E0163
:103BF000DF91CF911F910F910895BF92CF92DF92E5
:103C0000EF92FF920F931F93CF93DF93FC0182817A
:103C100080FF03C0DD24DA9402C0DD24D39403ECDA
:103C200012E0C0E0D0E02FE0B22EF8011182108245
:103C30001282138294E0E92EF12CC12C8091C002F3
:103C40008C0D80312CF06B2D0E94BA2A892F02C076
:103C500087FD815F082E000C990BC817D90791F4D6
:103C600080913A028E9DA0018F9D500D1124559593
:103C70004795559547959801609139028091380292
:103C80000E94190DCD0CF1E0EF1AF108B9F621965A
:103C90000C5F1F4FCF30D10541F60E9496108091E6
:103CA000C00291E0D91206C0811102C08EE007C0A7
:103CB000815005C090E00196BE010E94DC2A8093ED
:103CC000C002DF91CF911F910F91FF90EF90DF9095
:103CD000CF90BF900895CF93DF93EC01E7E3F2E03C
:103CE000438162818C810E94AE0D8C818F5F8C83B9
:103CF000DF91CF910895CF93DF93EC01EC81F0E059
:103D0000E252F94F4491E7E3F2E0628181810E943F
:103D1000AE0D8C818F5F8C83DF91CF9108950F93CF
:103D20001F93CF93DF93CDB7DEB767970FB6F894A5
:103D3000DEBF0FBECDBF4B8B5C8B6D8B7E8B8F8BB5
:103D40000E891F890115110531F05F3F31F481E0C3
:103D50004F3F19F403C081E001C080E080FD32C014
:103D6000242F30E0A1E0B0E0042E01C0AA0F0A9495
:103D7000EAF7852F90E0662319F07091790305C06A
:103D8000FC01EB5FFC4F70817A237723A1F046E0C2
:103D9000489FF001499FF00D1124E20FF31FEE0F31
:103DA000FF1FEF5AFE4F40815181FC01EB5FFC4F3A
:103DB0009081A92B06C0FC01EB5FFC4FA095808190
:103DC000A823A08386E0FE013D96DF01982F1D9277
:103DD0009A95E9F74D875E876F87198B088BDE010F
:103DE000179601900D928A95E1F7CE0107960E94F1
:103DF0009A2681113EC086E0FE013796DE011196BB
:103E000001900D928A95E1F7FF81E8856A857B85AF
:103E10006115710531F0EF3F31F481E0FF3F19F496
:103E200003C081E001C080E080FD23C020918003B9
:103E300030E0C9010196877099274091B10350E0A5
:103E40008417950779F1F983EA837D836C8396E083
:103E5000929FD001939FB00D1124AF57BC4FFE012C
:103E6000319601900D929A95E1F7809380030E941C
:103E7000282616E08091B103909180038917F9F00C
:103E8000189FC00111248F579C4F0E949A268823A7
:103E9000B1F08091B10390E00196877099278093EB
:103EA000B103E8CF0E947628109280031092B103EC
:103EB000EAE7F3E086E0DF011D928A95E9F767966D
:103EC0000FB6F894DEBF0FBECDBFDF91CF911F912B
:103ED0000F910895209103033091040328173907A7
:103EE00071F09093040380930303E0918702F091B3
:103EF0008802309721F00084F185E02D099408951F
:103F000020910103309102032817390771F0909333
:103F1000020380930103E0918702F09188023097B9
:103F200021F00680F781E02D09940895E091870241
:103F3000F0918802309721F00190F081E02D0994F2
:103F400080E008959091370290FF04C096959817ED
:103F500040F003C0811105C090E0961710F40C9456
:103F6000000D0C94EC0C882311F0FA0101C0FB0148
:103F700009949091370290FF0DC0E3ECF2E0818349
:103F8000608342831382349692E0EF3FF907B9F7DA
:103F90000C94961008950F931F93CF93DF9300D046
:103FA00000D0CDB7DEB78C018091C20281110AC06A
:103FB0009E012F5F3F4F4FEF6FEF0E94190D8A81D7
:103FC0008093C202F8018481813051F028F0823060
:103FD00061F44091C2020AC08091C20240E007C071
:103FE0006091C20240E080E003C040E080E060E019
:103FF0000E94B91FF801848190E0019663E070E0AF
:104000000E94DC2A84830F900F900F900F90DF9115
:10401000CF911F910F9108955F926F927F928F922F
:104020009F92AF92BF92CF92DF92EF92FF920F9347
:104030001F93CF93DF9300D000D0CDB7DEB7182FFA
:10404000762E042F622E9091370290FF6DC0E92FDB
:10405000E695AE2FB0E0A45DBE4F8C9180939E029A
:104060009E7F923061F49E012F5F3F4F812F0E940F
:10407000190D4B8169818A810E94B91F43C082302A
:1040800019F400913A023EC0863019F410913802BA
:1040900039C08930D9F38931A9F5E9518E2F817062
:1040A000582EE695F0E0E752F94FA590B49083ECD6
:1040B000C82E82E0D82EE12CF12CBB249FE0892E63
:1040C000912CAE9CC001AF9C900DBE9C900D112414
:1040D000B4010E94C82A812F511002C0860F01C06E
:1040E000861B9601402F672D0E94190D8FEFE81A4D
:1040F000F80A84E0C80ED11C8FE0E816F10409F735
:104100000E949610109338027092390200933A027E
:10411000662051F060913702709138028091390227
:1041200090913A020E947D0C0F900F900F900F908B
:10413000DF91CF911F910F91FF90EF90DF90CF9083
:10414000BF90AF909F908F907F906F905F900895F9
:104150000F931F93CF93DF93C62FD42F122FFC0101
:1041600082818823C9F060932B020E94CF22909312
:1041700000038093FF0280E28C0F883008F057C064
:10418000C77081E001C0880FCA95EAF7DF91CF912F
:104190001F910F910C94AB2880912B02681330C0B3
:1041A0008091FF02909100030E94A522883C910516
:1041B00038F500E20D0FCD17B9F080E28C0F883092
:1041C00040F4C77081E001C0880FCA95EAF70E94E9
:1041D000A028083028F581E09D2F977001C0880F36
:1041E0009A95EAF70E94AB28812F0E94B5280830E3
:1041F000F0F4D77081E001C0880FDA95EAF70AC0C1
:1042000080E28C0F883098F4C77081E001C0880F7D
:10421000CA95EAF7DF91CF911F910F910C94A028D6
:10422000812FDF91CF911F910F910C94B528DF91D1
:10423000CF911F910F91089560913702669570E0BC
:104240004BE050E083E191E00E94232C892B19F48C
:1042500081E080939F020E94CF22909399028093E5
:104260009802089580913F020895209162022430BF
:1042700099F423E02093E90070E040E050E00E94D0
:104280001C18882321F01092BE021092BF02809168
:10429000E8008E778093E8000895803F39F480919C
:1042A000A30287FF6CC01092A30269C0813F29F46A
:1042B0008091A3021816BCF362C09091A202823FC3
:1042C00029F497FF5CC01092A20259C0833F19F4F1
:1042D0001916CCF354C0893F41F48091A4021816FA
:1042E0000CF04DC01092A4024AC08A3F29F480917C
:1042F000A40287FF44C0F6CF8B3F39F48091A5021A
:1043000087FF3DC01092A5023AC08C3F29F48091EE
:10431000A5021816BCF333C0843F21F48091A1029A
:104320008E7F17C0853F21F48091A1028D7F11C03F
:10433000863F21F48091A1028B7F0BC0873F21F43F
:104340008091A102877F05C0883F31F48091A1024E
:104350008F7E8093A10213C08D3F21F4809177035B
:104360008E7F0BC08E3F21F4809177038D7F05C037
:104370008F3F29F4809177038B7F8093770380911F
:10438000A20281110EC08091A30281110AC0809106
:10439000A402811106C08091A502811102C0109271
:1043A000A60208958091770380FD16C081FD16C096
:1043B00082FD18C08091A602882391F0883290F483
:1043C00028E0829FC001112468E270E00E94DC2A8C
:1043D000862F672B29F007C082E0089584E00895B6
:1043E00081E0089588E008958091770380FD17C0EB
:1043F00081FD17C082FD19C08091A602882399F023
:104400008C3398F423E2829FC00111246CE370E0A6
:104410000E94DC2A862F672B49F481E0089588E00A
:10442000089581E1089585E0089583E20895803F2D
:1044300021F40E94F421819504C0813F29F40E9457
:10444000F4218093A3020895823F21F40E94F42175
:10445000819504C0833F29F40E94F4218093A20235
:104460000895893F19F40E94D22105C08A3F31F492
:104470000E94D22181958093A40208958B3F21F45C
:104480000E94D221819504C08C3F29F40E94D22140
:104490008093A5020895843F21F48091A102816058
:1044A00017C0853F21F48091A102826011C0863F30
:1044B00021F48091A10284600BC0873F21F4809198
:1044C000A102886005C0883F31F48091A10280611B
:1044D0008093A10208958D3F21F48091770381603C
:1044E0000BC08E3F21F480917703826005C08F3F1F
:1044F00029F48091770384608093770308957894FA
:104500001F920F920FB60F9211248F939F93AF9328
:10451000BF938091730390917403A0917503B09140
:1045200076030196A11DB11D8093730390937403CC
:10453000A0937503B0937603BF91AF919F918F9134
:104540000F900FBE0F901F901895CF92DF92EF92B1
:10455000FF920F931F932FB7F894409173035091DC
:10456000740360917503709176032FBF6A017B011C
:10457000EE24FF248C0120E030E0C016D106E206D4
:10458000F30610F4415051099A01281B390BC90157
:104590001F910F91FF90EF90DF90CF9008952FB76C
:1045A000F8948091730390917403A0917503B09176
:1045B00076032FBF0895E0918702F091880230972B
:1045C00049F082E08093A0020480F581E02D80EA2A
:1045D00092E009950E94CF229093A8028093A702AF
:1045E00008951F920F920FB60F9211248F939F93ED
:1045F000AF93BF9380918902811113C0809173039F
:1046000090917403A0917503B09176034196A11D1A
:10461000B11D8093730390937403A0937503B093BB
:104620007603BF91AF919F918F910F900FBE0F9026
:104630001F901895209106012223C9F02091840231
:1046400027FF15C0262F2695269526952E31C8F4CE
:10465000FC01E20FF11D677081E090E001C0880F5E
:104660006A95EAF780959281892382830895FC01F7
:1046700006962281621301C012823196E817F9076B
:10468000C1F70895209106012223C1F020918402F0
:1046900027FF14C0262F2695269526952E3130F516
:1046A000FC01E20FF11D677081E090E001C0880F0E
:1046B0006A95EAF79281892B82830895FC013296EC
:1046C0002FEF30E04191641789F02F3F19F4411129
:1046D00001C0232F3F5F3630A9F72F3F39F0FC018F
:1046E000E20FF11D27FDFA95628308950895CF9397
:1046F00084E090E00E94722AC82F81E290E00E943C
:10470000722A2C2F30E0A901582BCA01CF910895AD
:104710006FEE7EEF80E090E00E94A42A60E082E0ED
:1047200090E00E94862A60E083E090E00E94862A62
:1047300010926F0310927003109271031092720323
:1047400060E084E090E00E94862A60E081E290E0F0
:104750000E94862A60E085E090E00E94862A60E060
:1047600086E090E00E94862A6FEF87E090E00E944A
:10477000862A40E050E0BA0188E090E00E94982A42
:1047800060E08DE090E00E94862A40E050E0BA01AF
:1047900088E190E00E94982A60E087E190E00E9422
:1047A000862A40E050E0BA018CE190E00E94982A0D
:1047B00060E080E290E00E94862A109272021092DD
:1047C0007302109274021092750284E080618093EB
:1047D0007202409172025091730260917402709162
:1047E00075028FE090E00E94982A40E050E0BA0104
:1047F00083E190E00C94982ACF92DF92EF92FF929F
:104800006C01EE24FF24C114D104E104F10421F071
:10481000C701B60120E101C020E0C72ED82EE92E45
:10482000FF24C114D104E104F10419F0285FC70189
:10483000B6016B017C0154E0F694E794D794C794D9
:104840005A95D1F7C114D104E104F10419F02C5F99
:10485000C701B6016B017C0142E0F694E794D7945E
:10486000C7944A95D1F7C114D104E104F10419F0B9
:104870002E5FC701B601DC01CB01B695A7959795D0
:104880008795892B8A2B8B2B09F02F5F822FFF9026
:10489000EF90DF90CF90089580916E038111109278
:1048A0006E03089590916D0380916C03892B209184
:1048B0006B03982F922B9093130380916E038823A0
:1048C000D9F0892B8093130380910601882331F05E
:1048D0008091840287FF02C08EE101C086E0E5E19D
:1048E000F3E090E0815028F021912223D9F39F5FDB
:1048F000F9CF91110E944C24E0918702F091880237
:104900003097A9F080910601882359F080918402A4
:1049100087FF07C0809113038093140385E0809381
:1049200013030280F381E02D83E193E0099408955D
:10493000BF92CF92DF92EF92FF920F931F93CF938C
:10494000DF938C01C090B902D090BA02E090BB0214
:10495000F090BC0280916F0390917003A09171035D
:10496000B0917203C82AD92AEA2AFB2ACFE1D0E003
:10497000D701C6010C2E04C0B695A79597958795CB
:104980000A94D2F780FD04C0219790F7B12C07C09C
:10499000BC2EB8018C2F0E94CF0D0197A9F38B2D4F
:1049A000DF91CF911F910F91FF90EF90DF90CF900B
:1049B000BF900895CF93DF93EC010E949824BE012D
:1049C0000E94CF0DDF91CF910895292F220F920FD2
:1049D000990F890F682F669566956695982F977041
:1049E00085E0689FB001112440E050E080E0FB01C9
:1049F000E40FF51FED5CFC4F208130E0092E02C072
:104A0000369527950A94E2F721703327042E01C0CA
:104A1000220F0A94EAF7822B4F5F5F4F4530510512
:104A200031F70895292F220F920F990F890FE82F40
:104A3000E695E695E695877051E001C0550F8A9599
:104A4000EAF785E0E89FF0011124ED5CFC4F20E0DF
:104A500030E070E04081CB01022E02C09695879530
:104A60000A94E2F7817081958427852384278193B6
:104A70002F5F3F4F2530310569F708950F931F933E
:104A800041E050E060E070E004C0440F551F661F35
:104A9000771F8A95D2F740955095609570958091D3
:104AA000B9029091BA02A091BB02B091BC028A01F6
:104AB0009B01082319232A233B23C901B8011F9115
:104AC0000F910C94E12520916A03809582238093B5
:104AD0006A03982F977079F430E0482F082E000C65
:104AE000550B2417350739F08595859585950E94D6
:104AF0003E2510926A0308950F931F9341E050E002
:104B000060E070E004C0440F551F661F771F8A9550
:104B1000D2F78091B9029091BA02A091BB02B091F4
:104B2000BC028A019B01082B192B2A2B3B2BC901A4
:104B3000B8011F910F910C94E1250E94DA24292FCE
:104B40002F70E92FE295EF704E2F50E0FA01329767
:104B5000EE30F105B8F4E257FF4F0C94F02A803F95
:104B600099F018F4883E70F40FC0843F59F40CC0DB
:104B7000883E50F0813F31F407C0822F869586959C
:104B80008695089580E0089581E0089510926C0361
:104B900010926B030E945224E0EAF2E086E0DF010B
:104BA0001D928A95E9F71092A602109277030E944F
:104BB000DB2280E090E00E94801F80E090E00C9477
:104BC0006A1FCF92DF92EF92FF92CF93DF9300D0D4
:104BD00000D0CDB7DEB70E947D0F6B017C018091C4
:104BE000BD02882319F08091BE0202C080E090E0EF
:104BF00080FF0FC0198282E08A83C701B6010E943C
:104C0000FC238B838EEF8C8364E0CE0101960E949F
:104C10003521C092B902D092BA02E092BB02F09262
:104C2000BC020E94C6250F900F900F900F90DF914D
:104C3000CF91FF90EF90DF90CF90089560936F0336
:104C40007093700380937103909372030C94C62544
:104C50008091B10390918003891719F08F5F87705D
:104C6000FBCF0895CF9380917F0382958F7009F0D9
:104C70005FC080917C03882309F45AC08091B103FE
:104C8000B091800370917A03A0917B0340917D03E2
:104C900050917E0391E07F3F09F090E0692FC6E0DC
:104CA0008B1709F445C04115510521F0AF3F21F0A4
:104CB00020E003C021E001C0262F90E020FD35C098
:104CC000C89FF001C99FF00D1124EF57FC4F2181BF
:104CD0002A132BC02081271328C02281211125C02F
:104CE000238134812417350710F421503109241B06
:104CF000350B283C3105C8F420917F032F702061CB
:104D000020937F0326E0289FF001299FF00D1124B6
:104D1000EA57FC4F80818F70806180838AE793E03F
:104D20000E940E04CF910C94282601968770B8CF6C
:104D3000CF910895AF92BF92CF92DF92EF92FF9200
:104D40000F931F93CF93DF93CDB7DEB761970FB665
:104D5000F894DEBF0FBECDBF8C0185E0F801DE0107
:104D60001D9601900D928A95E1F7D8013C9111961C
:104D70002C9111971296EC9050917A0360917B03DD
:104D800080917D0390917E03009731F06F3F31F465
:104D900041E05F3F19F403C041E001C040E0B42F9F
:104DA000B170BB2E40FD43C1F801C380D480A090F8
:104DB0007C03AA2009F4E2C040917F03C816D906FB
:104DC00028F0D601A81BB90BCD0104C080959095A1
:104DD0008C0D9D1DFF24F394883C910548F0F12C27
:104DE000407F09F090C08AE793E00E940E0417C14B
:104DF000842F807F09F052C0621312C0531310C079
:104E0000FE2CE1100DC04F70406140937F038AE794
:104E100093E00E940E0480917F03F801858354C1C2
:104E2000CD2831F02F3F31F481E03F3F19F403C02A
:104E300081E001C080E080FD03C081E08E2502C0DA
:104E400080E090E0F82FF170FF2E80FF1CC0809171
:104E5000B1034091800356E0841709F412C190E039
:104E6000589FF001599FF00D1124EF57FC4F6181BD
:104E7000261306C06081361303C06281E61203C0A8
:104E800001968770E9CFFE2CEE2009F41DC18091B8
:104E90007F03816080937F03F12C16C1621308C0E9
:104EA000531306C0E11004C080917F03F80199C03C
:104EB0003D872E878D859E850E949D25882369F1DB
:104EC000EE2059F120917F03822F82958F7090E020
:104ED000029774F080917A0390917B0398878F8377
:104EE0001986DB86CA862C87CE0107960E940E049F
:104EF00086E0F801AAE7B3E001900D928A95E1F708
:104F00000E9432260DC0621771F03D872E878D8575
:104F10009E850E949D2581111AC0C8010E940E0421
:104F2000FF24F394D1C05313F0CFE110EECF809162
:104F30007F03F8018583C8010E940E0486E0EAE73A
:104F4000F3E0DF011D928A95E9F7FA2CBDC0EE204F
:104F500021F320917F03822F82958F7090E002973A
:104F60003CF280917A0390917B039A8389831B8220
:104F7000DD82CC822E83CE010196B8CFC816D90629
:104F800038F0C81AD90AB8ECCB16D10450F007C0D3
:104F9000809590958C0D9D1D883C910510F0F12C0D
:104FA0003EC0FE2CEE2009F4B8CF621327C0531385
:104FB00025C020917F0320FD18C0822F82958F701D
:104FC000482F50E04115510581F0F80125834F30FD
:104FD000510541F08F5F982F9295907F822F8F70AF
:104FE000892B8583C8010E940E0486E0F801AAE798
:104FF000B3E001900D928A95E1F766C03D872E8758
:105000008D859E850E949D25811172CF80917F03A1
:10501000816080937F03C8010E940E0455C0EAE7B7
:10502000F3E086E0DF011D928A95E9F74DC0EE209E
:1050300009F473CF3D872E878D859E850E949D251F
:10504000F82E882309F469CF86E0F801AAE7B3E0D7
:1050500001900D928A95E1F780917A0390917B03FC
:105060000E94DA2492959F70963041F480917903E2
:1050700091E0892780937903909378030E943226E8
:1050800023C03D872E878D859E850E94DA24292F97
:1050900022952F70223028F49F7039F0811105C0BD
:1050A0000BC0243028F49F7049F4805E883020F0D3
:1050B000C8010E940E04BF2CFB2C06C0D801159617
:1050C0009C91907F91F7F8CF8F2D61960FB6F89451
:1050D000DEBF0FBECDBFDF91CF911F910F91FF902B
:1050E000EF90DF90CF90BF90AF90089510926D0336
:1050F00080910601882331F08091840287FF02C0ED
:105100008EE101C086E0E5E1F3E0DF011D928A95C2
:10511000E9F70C94C625882341F0809590916C03A3
:10512000892380936C030C9452240895882339F0CA
:1051300090916C03892B80936C030C9452240895F6
:10514000882341F0809590916D03892380936D03AE
:105150000C9452240895882339F090916D03892B83
:1051600080936D030C9452240895CF93C82F0E940E
:105170002F29C93349F42FEF87EE93E02150804067
:105180009040E1F700C000008C2FCF910C94C8280C
:10519000882309F463C0823869F40E94961F81FF56
:1051A0005DC069E383E193E00E9442230E945224A0
:1051B00069E30EC0833891F40E94961F80FF4EC0B1
:1051C00063E583E193E00E9442230E94522463E559
:1051D00083E193E00E941A230C945224843869F4EA
:1051E0000E94961F82FF3AC067E483E193E00E9429
:1051F00042230E94522467E4EBCF9CEF980F913A30
:1052000010F4682FE5CF90E2980F983088F48770FB
:1052100021E030E0A90102C0440F551F8A95E2F752
:10522000CA01809590916D03892380936D03D4CF3B
:105230009BE5980F933020F480E090E00C94801F61
:1052400098E5980F973120F480E090E00C946A1F65
:10525000803F20F00E944D210C94DB22089588238A
:1052600009F489C08238B1F40E94961F81FD83C081
:1052700069E383E193E00E9442230E9452242FEFCE
:1052800041EE54E0215040405040E1F700C00000A2
:1052900069E317C08338D9F40E94961F80FD6BC064
:1052A00063E583E193E00E9442230E9452248FEF42
:1052B00091EE24E0815090402040E1F700C00000D2
:1052C00063E583E193E00E941A230C94522484380E
:1052D000B1F40E94961F82FD4EC067E483E193E023
:1052E0000E9442230E9452244FEF51EE84E041502D
:1052F00050408040E1F700C0000067E4E2CF9CEF3F
:10530000980F913A30F4682F83E193E00E94422392
:10531000DCCF90E2980F983080F4877021E030E085
:10532000A90102C0440F551F8A95E2F7CA01909166
:105330006D03892B80936D03C8CFEBE5E80FE33055
:1053400038F4F0E0E750FE4F808190E00C94801F2D
:10535000E8E5E80FE73148F4F0E0EE0FFF1FE45016
:10536000FE4F808191810C946A1F803F20F00E9443
:1053700017220C94DB2208951092B9008CE08093E0
:10538000B8000895EF92FF920F931F93CF93DF938E
:10539000182FEB011092BC0084EA8093BC000E949D
:1053A000CF227C018091BC0087FD0EC0CF3F8FEFE4
:1053B000D807C1F30E94CF228E199F098C179D0731
:1053C00088F38EEF9FEF2EC08091B900887F8830E0
:1053D00041F08091B900887F803119F08FEF9FEF05
:1053E00021C01093BB0084E88093BC000E94CF22B0
:1053F0008C018091BC0087FD0CC0CF3F8FEFD80798
:10540000C1F30E94CF22801B910B8C179D0788F35C
:10541000D8CF8091B900887F883111F08034F1F6BF
:1054200080E090E0DF91CF911F910F91FF90EF907E
:1054300008950F931F93CF93DF93EB018093BB00ED
:1054400084E88093BC000E94CF228C018091BC0034
:1054500087FD0EC0CF3F8FEFD807C1F30E94CF2248
:10546000801B910B8C179D0788F38EEF9FEF0CC06C
:105470002091B900287F81E090E0283211F480E08B
:1054800090E0919581959109DF91CF911F910F91B6
:1054900008950F931F93CF93DF93EC0184E88093DB
:1054A000BC000E94CF228C018091BC0087FD0EC001
:1054B000CF3F8FEFD807C1F30E94CF22801B910B03
:1054C0008C179D0788F38EEF9FEF03C08091BB0080
:1054D00090E0DF91CF911F910F91089584E980931F
:1054E000BC000895F999FECF92BD81BDF89A992725
:1054F00080B50895A6E1B0E044E050E00C94AC2AF9
:10550000A8E1B0E042E050E00C94AC2A262FF999D3
:10551000FECF92BD81BDF89A019700B4021639F012
:105520001FBA20BD0FB6F894FA9AF99A0FBE0895E3
:105530000396272F0E94872A0E94862A252F0E94E1
:10554000872A242F0C94872A0196272F0E94872AC6
:105550000C94862ADC01CB01FC01F999FECF06C030
:10556000F2BDE1BDF89A319600B40D924150504021
:10557000B8F7089587FB082E062687FD819567FDFD
:1055800061950E94F62A0EF4919507FC8195089585
:10559000AA1BBB1B51E107C0AA1FBB1FA617B70759
:1055A00010F0A61BB70B881F991F5A95A9F7809575
:1055B0009095BC01CD01089597FB072E16F4009439
:1055C00007D077FD09D00E94C82A07FC05D03EF419
:1055D000909581959F4F0895709561957F4F08959F
:1055E000EE0FFF1F0590F491E02D0994991B79E0CF
:1055F00004C0991F961708F0961B881F7A95C9F763
:10560000809508950F931F93CF93DF938230910578
:1056100010F482E090E0E091B403F091B50320E053
:1056200030E0A0E0B0E0309719F140815181028173
:10563000138148175907C8F08417950769F4109724
:1056400031F012960C93129713961C9327C0009377
:10565000B4031093B50322C02115310519F0421788
:10566000530718F49A01BD01EF01DF01F801DBCF08
:1056700021153105F9F0281B390B2430310580F450
:105680008A819B816115710521F0FB0193838283DF
:1056900004C09093B5038093B403FE01329644C0D6
:1056A000FE01E20FF31F8193919322503109398358
:1056B00028833AC02091B2033091B303232B41F4E5
:1056C00020910201309103013093B3032093B20380
:1056D00020910001309101012115310541F42DB7D0
:1056E0003EB74091040150910501241B350BE09118
:1056F000B203F091B303E217F307A0F42E1B3F0BA4
:105700002817390778F0AC014E5F5F4F2417350733
:1057100048F04E0F5F1F5093B3034093B203819341
:10572000919302C0E0E0F0E0CF01DF91CF911F91B3
:105730000F910895CF93DF93009709F481C0FC0186
:10574000329713821282A091B403B091B5031097DF
:1057500081F420813181820F931F2091B203309117
:10576000B3032817390751F5F093B303E093B2035D
:1057700067C0ED0120E030E0CE17DF0740F44A813A
:105780005B819E0141155105F1F0EA01F5CFD3830C
:10579000C28340815181840F951FC817D90759F4DE
:1057A00088819981840F951F0296918380838A81D5
:1057B0009B81938382832115310529F4F093B503EE
:1057C000E093B4033DC0E901FB83EA834991599119
:1057D000C40FD51FEC17FD0761F480819181840F00
:1057E000951F0296E90199838883828193819B8327
:1057F0008A83E0E0F0E012968D919C9113970097D8
:1058000019F0FD01DC01F7CF8D919C9111979D015D
:105810002E5F3F4F820F931F2091B2033091B3034D
:105820002817390769F4309729F41092B5031092BC
:10583000B40302C013821282B093B303A093B203E5
:10584000DF91CF910895FC014150504030F001901C
:105850000616D1F73197CF01089588279927089523
:04586000F894FFCFEA
:105864000000B60320000120003221C6189B1895C1
:1058740018831801191A1B1C1D1E1F202122010246
:10588400445A4B47372F724476587700000102027E
:1058940002020606060909090909090F0F0F0F0F6D
:1058A4000F15151518191919191919191919192371
:1058B40024000D010D020D030D040D050D000C0156
:1058C4000C020C030C040C050C000B010B020B0363
:1058D4000B040B050B000A010A020A030A040A0559
:1058E4000A0009010902090309040905090008015C
:1058F4000802080308040805080007010702070353
:105904000704070507000601060206030604060548
:10591400060005010502050305040505050004014B
:105924000402040304040405040003010302030342
:105934000304030503000201020202030204020538
:10594400020001010102010301040105010000013B
:10595400000200030004000500818283E200E900E4
:10596400EA00B500B600B700CD008301CC008A017F
:105974009201940121022302240225022602270215
:0A5984002A02B300B4006F007000A7
:00000001FF
