:100000000C94EF030C940C040C940C040C940C044E
:100010000C940C040C940C040C940C040C940C0420
:100020000C940C040C940C040C9423170C945F1681
:100030000C9437230C940C040C940C040C940C04B6
:100040000C940C040C940C040C940C040C940C04F0
:100050000C940C040C94C5220C940C040C940C0409
:100060000C940C040C940C040C940C040C940C04D0
:100070000C940C040C940C040C940C040C940C04C0
:100080000C940C040C940C040C940C040C940C04B0
:100090000C940C040C940C040C940C040C940C04A0
:1000A0000C940C040C940C040C940C042F075107B2
:1000B00056075B07600765076A076F0774077907CC
:1000C0007E07FD04850788078B078E079107FF04CD
:1000D000940799073908390877087708C008E008B5
:1000E000B40A0D0B22090E0A200A200A080C0B0C78
:1000F0000E0C110C140C170C1A0CA20FA70FB10F39
:10010000A50FAA0FAF0FAD0FA414CB143716CB1445
:100110003716131536153716F5150916FC25FC2567
:100120000F260F2605260F260F260F26FC25FC2559
:100130000A260F260F260A262E002B00E000E100DB
:10014000354100001E00140004001D61085D4D00D3
:100150001F001A0016001B00E1042A0020000800FE
:100160000700060050002C002100150009001900AE
:100170004F004A00220017000A00050000006564D5
:10018000500001530000000F0000E3004F00015336
:10019000000000070000E20023001C000B0011001B
:1001A00000002961240018000D00100052004B00CF
:1001B00025000C000E003600510028002600120019
:1001C0000F0037002F00E70027001300334238717B
:1001D00030004E002D0031003468E5000151000070
:1001E0002900010001000100010000003A001E0288
:1001F000200222022E000E5D3B001F02210223027C
:100200000100C95C3C002F0226022F000100CA5CDD
:100210003D0030022702300001000D5D3E0031023A
:10022000350035020000C35C010001000000010040
:1002300000000C5D01000100000001000000C25C34
:100240003F0052005100240200000B5D40002400DA
:1002500021001E00010001004100250022001F00B6
:100260003700C55C42002600230020002700C65C42
:10027000430025022E0231002E00010044004500FB
:100280000100010001000000010001000100010067
:100290000100000001000100010001000100010057
:1002A00001000100F2000100010001000100F00066
:1002B000F1000100F400010001000100F300010061
:1002C000F500010001000100010001000000010033
:1002D0000100010000000100000001000100010018
:1002E0000000010000000100010001000100010008
:1002F000000001000100010001000100A90001004F
:10030000010001000100AC00AA00B60001000100DC
:100310000100AB00A8000100010001000100010084
:1003200001000100005C0100AE00010001000000BE
:1003300000010101010101010101020202020202A8
:10034000020202030303030303030304040404047B
:100350000404050505050506060606060707070742
:100360000708080808090909090A0A0A0B0B0B0CF7
:100370000C0C0D0D0D0E0E0E0F0F0F101011111194
:100380001212131314141515161617171818191915
:100390001A1A1B1B1C1D1D1E1E1F2020212222237A
:1003A0002424252626272829292A2B2C2D2D2E2FBB
:1003B00030313232333435363738393A3B3C3D3ED2
:1003C0003F404142434445464748494A4C4D4E4FC1
:1003D00050515354555658595A5B5D5E5F61626483
:1003E000656668696B6C6D6F7072737577787A7B10
:1003F0007D7E8082838587888A8C8E8F9193959667
:10040000989A9C9EA0A2A3A5A7A9ABADAFB1B3B586
:10041000B7BABCBEC0C2C4C6C9CBCDCFD1D4D6D862
:10042000DBDDDFE2E4E7E9EBEEF0F3F5F8FAFDFF00
:100430000A00000000000306B200080001000000EE
:10044000A800080002000200A000140003005749A1
:100450004E555342000000000000000000008400E0
:10046000040007002A00440065007600690063006C
:10047000650049006E00740065007200660061004E
:100480006300650047005500490044007300000008
:1004900050007B0039004400420037004600310024
:1004A000460044002D0037004500370041002D0074
:1004B00034003000300038002D00390033003600A1
:1004C00042002D003600420041003600430031005A
:1004D0003900410033003000380063007D00000027
:1004E00000001B0301636F6E6669677572652E6598
:1004F00072676F646F782D657A2E636F6D000501EA
:100500000902A10185020901A100050919012905B6
:10051000150025019505750181029501750381017D
:100520000501093009311581257F9502750881067D
:1005300009381581257F950175088106050C0A3853
:10054000021581257F950175088106C0C005010946
:1005500080A10185031A81002A8300160100260369
:1005600000950175108100C0050C0901A1018504E9
:100570001A01002A9C02160100269C0295017510A2
:100580008100C005010906A1018505050719E029BB
:10059000E715002501950875018102050719002955
:1005A000EF1500250195F075018102050819012953
:1005B00005950575019102950175039101C005012D
:1005C0000906A101050719E029E71500250195088D
:1005D000750181029501750881010507190029FF40
:1005E000150026FF009506750881000508190129E8
:1005F00005950575019102950175039101C00902E8
:100600005200030100A0FA090400000103010100E7
:100610000921110100012240000705810308000A99
:100620000904010001030000000921110100012259
:10063000C0000705820320000A0904020002FF002F
:10064000000007058303400005070504034000057B
:100650001201100200000008EDFE07130100010264
:100660000301040330000000160345007200670018
:100670006F0064006F007800200045005A00000001
:1006800008035A0053004100000004030904050F49
:100690003900021C100500DF60DDD88945C74C9C7D
:1006A000D2659D9E648A9F00000306B20045001833
:1006B00010050038B60834A909A0478BFDA076883C
:1006C00015B6650001420000047F3F1F64321464C8
:1006D0003214783C1E1E140A05FFAA7F55402223BF
:1006E000252628292A2C2D2F3032333536383A3B0F
:1006F0003D3E4042434547494A4C4E505153555761
:10070000595A5C5E6062646668696B6D6F7173757F
:1007100077797B7D7F81838587898A8C8E9092947F
:1007200096989A9C9E9FA1A3A5A7A8AAACAEAFB18C
:10073000B3B4B6B8B9BBBCBEBFC1C2C3C5C6C7C9D6
:10074000CACBCCCDCED0D1D2D2D3D4D5D6D7D7D890
:10075000D9D9DADADBDBDBDCDCDCDCDCDDDDDDDDE2
:10076000DCDCDCDCDCDBDBDBDADAD9D9D8D7D7D6EA
:10077000D5D4D3D2D2D1D0CECDCCCBCAC9C7C6C5A1
:10078000C3C2C1BFBEBCBBB9B8B6B4B3B1AFAEACE7
:10079000AAA8A7A5A3A19F9E9C9A98969492908E92
:1007A0008C8A89878583817F7D7B79777573716F6B
:1007B0006D6B6968666462605E5C5A595755535147
:1007C000504E4C4A4947454342403E3D3B3A3836FD
:1007D000353332302F2D2C2A292826252322112487
:1007E0001FBECFEFDAE0DEBFCDBF12E0A0E0B1E088
:1007F000E4EDF8E502C005900D92AC35B107D9F7EC
:1008000023E0ACE5B2E001C01D92A83EB207E1F7DB
:100810000E943B190C94682C0C9400008F929F92BC
:10082000AF92BF92CF92DF92EF92FF920F931F93FE
:10083000CF93DF93CDB7DEB72D970FB6F894DEBF19
:100840000FBECDBFFC01F080118183819481892B83
:1008500009F408C71F3F21F40FEFF01609F402C78F
:100860006F0185E0DE01169601900D928A95E1F701
:10087000F60122818E819F81222349F00E94E42487
:10088000082F682F8E819F810E945D2503C00E94E2
:100890003025082F26E0129FF001112434E5039F34
:1008A000E00DF11D1124EF0DF11DEE0FFF1FE85CAF
:1008B000FE4F059114918091EF028823B9F0809149
:1008C000F002882399F01982F60182818111C6C64F
:1008D00082E18A83F60180818B8381818C838EEF14
:1008E0008D8365E0CE0101960E947B21F601828115
:1008F0000930FDE51F0709F040C0882309F483C0D3
:100900009091A40281E0890F8770987F853020F450
:10091000892B8093A40202C09093A4028091A40228
:1009200087702FEF829FC00111249595879595952B
:1009300087959927909389008093880090938B00E6
:1009400080938A0090938D0080938C004091A40244
:100950005091A5026091A6027091A7028FE090E0ED
:100960000E94C42A6091EB027091EC028091ED022A
:100970009091EE020E94880F46C00C303DE51307AF
:1009800099F028F40B30EDE51E0751F03CC00D3016
:10099000FDE51F07B1F00E302DE5120709F133C058
:1009A000882309F45FC629C0882309F45BC60E9426
:1009B000FC0C81E00E94F90C21E04FEF6FEF8CEA14
:1009C0000CC0882309F44EC60E94FC0C81E00E94F2
:1009D000F90C21E040E86FEF86E50E94592042C6FD
:1009E000882309F43FC60E94FC0C81E00E94F90CA8
:1009F00021E04FEF6FEF8BE1F0CF81E001C088E1A4
:100A00000E94F90C2FC6F6018281882319F1033E5A
:100A10003CE51307C1F050F4013E9CE5190781F055
:100A2000023EECE51E07B1F481E010C0043EFCE597
:100A30001F0759F0053E2CE5120761F484E006C05B
:100A40001092A00205C082E001C083E08093A00262
:100A50000E94D80D17FF71C0F6018281882309F426
:100A60006CC080919F0380935C0210929F038091E1
:100A7000A002813071F048F08230C1F08430E1F49E
:100A800086EE0E94E12888E115C082EE0E945B2973
:100A900013C083E00E94C22888E10E945B2988E19C
:100AA0000E94F42883E00E94B72806C082EE0E94CC
:100AB0005B2987E50E94E1288FE39CE90197F1F724
:100AC00000C000007801E894F7F85CE0A52EB12C96
:100AD000C7010A2C02C0969587950A94E2F7282F41
:100AE0002F7041F0822F90E02A3010F44D9604C010
:100AF000069702C087E290E00E94E12894E0A91ADC
:100B0000B108ECEFAE16EFEFBE0611F78091A00230
:100B1000813039F040F0823031F0843051F488E295
:100B200006C08CE204C082EE0E94F42802C00E943B
:100B3000E12880915C0280939F03033FFCE51F073F
:100B400029F180F4083D3CE51307C9F0093D8CE527
:100B5000180741F1073D9CE5190739F526E241EEFA
:100B600061EE10C0053FECE51E07C1F098F0063FAE
:100B70002CE51207D1F427E245EE66EE03C027E22A
:100B800045EE65EEC6010E94F5206CC526E241EEF9
:100B900060EEF8CF27E245EE64EEF4CF26E241EEB8
:100BA00062EEF0CF28E241E0ECCFF601928199238A
:100BB00009F439C110925D020230FCE51F0708F408
:100BC0001CC106312CE5120738F098012A5F3C451C
:100BD0002730310508F011C10E94C3239093B7025A
:100BE0008093B6020F303CE5130709F4CFC008F03C
:100BF00042C008309CE5190709F4A8C0F0F404309D
:100C0000FCE51F0709F490C068F402303CE51307C7
:100C100009F486C003301C4509F0DFC08091B6029C
:100C20008260D9C006309CE5190709F487C008F036
:100C300089C08091B6028860CEC00B30FCE51F07EA
:100C400009F495C068F409303CE5130709F482C043
:100C50000A301C4509F0C1C08091B602886080C08E
:100C60000D309CE5190709F486C008F087C0809113
:100C7000B6028D7FB0C00A3FFCE51F0709F457C0DC
:100C800050F502313CE5130709F488C068F40031DF
:100C90009CE5190709F47EC001311C4509F09DC08F
:100CA0008091B6028F7B97C00431FCE51F0709F4E1
:100CB00087C008F479C005311C4509F08EC08091C9
:100CC000B60282FB222720F991E0922790FB82F95D
:100CD00090FB83F980C00D3F8CE5180709F452C0E2
:100CE00058F40B3FECE51E0729F10C3F1C4509F0B9
:100CF00074C08091B70260C00F3F2CE5120709F461
:100D000058C080F101151D4509F067C08091B702F8
:100D1000982F909591708E7F892B90FB81F94DC013
:100D20008091B602816057C08091B60219C080914F
:100D3000B7021BC08091B70282603FC08091B602AB
:100D4000806149C08091B602806245C08091B60240
:100D5000806441C00E94A2288091B60280683BC096
:100D6000846039C08091B7028260816026C0809122
:100D7000B6028E7F30C08091B60219C08091B60253
:100D8000877F29C08091B7028D7F17C08091B602FE
:100D90008F7E21C08091B6028F7D1DC00E94A22847
:100DA0008091B6028F7717C08091B602877F8B7FC4
:100DB00012C08091B7028D7F8E7F8093B7020DC0E5
:100DC0000E94A2288091B60287FB222720F991E099
:100DD000922790FB87F98093B6026091B60210913A
:100DE000B70284E090E00E94B22A612F81E290E095
:100DF0000E94B22A0E94A22835C480919F03063126
:100E0000FCE51F0701F58A7A91E009F490E09093E0
:100E10005E02911102C069E201C065E385E493E0DE
:100E20000E948B230DC006311C4509F0D9C080916A
:100E30005E02811115C469E285E493E00E9460239B
:100E40000E949E240FC48272F801E25CFC45E431EA
:100E5000F10508F070C0EA5AFF4F0C941C2B8091EA
:100E6000690280FF1BC08E7F8093690260916902D6
:100E700070916A0280916B0290916C020E94800CCA
:100E80001092D1029FEFE0E7F2E09150E040F04095
:100E9000E1F700C000000E94A110E4C30E94FC0C16
:100EA000E1C344E05DE06DE07DE02CC04DE05DE03D
:100EB00064E07DE027C048EB5BE061EC7BE022C0B2
:100EC00041EC5BE068EB7BE01DC040EA5BE06CEA74
:100ED0007BE018C04CEA5BE060EA7BE013C048E8C6
:100EE0005BE064E97BE00EC044E95BE068E87BE03E
:100EF00009C04CE95CE06DEA7CE004C04DEA5CE0CE
:100F00006CE97CE00E94FC1FADC365E082E00EC08E
:100F100068E086E00BC06EE089E008C064E18FE025
:100F200005C067E185E102C062E289E10E94EB1F32
:100F300099C383E265CD0E3D2CE5120709F446C046
:100F400008303DE5130709F444C001151C4509F0BC
:100F500047C00E94A2289FEFE4E3FCE09150E040EC
:100F6000F040E1F700C00000F89481E08093E000D9
:100F700080E28093D8001092C9008FE19EE401972F
:100F8000F1F700C000001DBA109268001CBC10BE32
:100F90001FBA10927A0010926E0010926F00109299
:100FA0007100109272001092C9001092BC0014B827
:100FB00017B81AB81DB810BA1092BC0015B818B8F6
:100FC0001BB81EB811BA0C94003F4CC30E94D42326
:100FD00049C39091F10281E089278093F10242C3D5
:100FE000F60100811181992349F0C8010E94E4248F
:100FF000F82E682FC8010E945D2504C0C8010E9418
:101000003025F82EB8018F2D0E94DE0D182F382FB5
:10101000F601258122952F700281011110929E0305
:1010200080919C038770A9F0002399F080E2810FE2
:10103000883078F082E02C873D879B870E94B2251C
:1010400080919C038770EE24E3942C853D859B85DD
:101050008111E12CA92EA2944FE0A422B12CFCE036
:10106000AF16B10408F0D9C2F501E659FF4F0C9450
:101070001C2B892F807F9F70F92E882319F0F29402
:1010800080EFF8220023B9F0FF2009F457C280E274
:10109000810F883010F0311106C090919F03F92A1A
:1010A000F0929F0305C090919E03F92AF0929E034F
:1010B0000E949E2443C2812F3D870E94F4283D85D3
:1010C000FF2009F4AAC2105EF094183010F031111C
:1010D00006C090919F03F922F0929F0305C0909162
:1010E0009E03F922F0929E030E949E2496C2492FED
:1010F000407F892F8F70403211F08295807F33239B
:1011000019F03130E9F025C0002381F03091A003BF
:10111000222351F0213041F4982F932B391709F4F1
:101120007CC29093A00379C2832B17C0222319F0AD
:10113000213009F472C28B870E9498248B851DC0D0
:10114000002321F0223008F068C207C0211165C2D7
:1011500014C0002329F02111F1C10E94D7285DC2DB
:10116000222359F0193309F0FBC10FEF27EE33E0CA
:10117000015020403040E1F7F1C10E94CC284DC21F
:10118000292F26952695237030E02115310521F071
:101190002130310559F041C2002319F0812F93709D
:1011A00002C080E090E00E94C91F40C2002319F0F5
:1011B000812F937002C080E090E00E94B31F36C27E
:1011C0000023F9F0153F51F0163F71F0143FA9F4D8
:1011D00080915F029091600281600BC080915F02FC
:1011E00090916002826005C080915F0290916002E0
:1011F00084609093600280935F02812F0E945D2241
:101200001EC0153F51F0163F71F0143FA9F48091B4
:101210005F02909160028E7F0BC080915F0290917F
:1012200060028D7F05C080915F02909160028B7F8C
:101230009093600280935F02812F0E9493210E940D
:101240002123F4C1892F837009F070C00111ECC112
:10125000812F829586958770880F880F412F4F7058
:1012600050E060E070E04A015B01082E04C0880C89
:10127000991CAA1CBB1C0A94D2F714FF12C00FE0E1
:1012800010E020E030E004C0000F111F221F331FC8
:101290008A95D2F7B901A80140955095609570954F
:1012A00003C040E050E0BA01969596959370892F5F
:1012B00090E08230910529F183309105C9F00091C9
:1012C000A1031091A2032091A3033091A4030197DD
:1012D00059F0482959296A297B29CB01BA01602391
:1012E0007123822393230AC0802A912AA22AB32A37
:1012F000CB01BA01682979298A299B290E9469268C
:1013000093C1482959296A297B298091A103909189
:10131000A203A091A303B091A4038A019B01082713
:1013200019272A273B27C901B801E8CF002319F064
:10133000892F817001C08695882309F475C1812F9A
:10134000829586958770880F880F412F4F7050E0E7
:1013500060E070E04A015B01082E04C0880C991C13
:10136000AA1CBB1C0A94D2F714FF12C00FE010E0B5
:1013700020E030E004C0000F111F221F331F8A95A8
:10138000D2F7B901A801409550956095709503C0BA
:1013900040E050E0BA01969596959370892F90E0C1
:1013A00082309105E9F08330910579F10091EB02EB
:1013B0001091EC022091ED023091EE02019759F06C
:1013C000482959296A297B29CB01BA016023712355
:1013D0008223932320C0802A912AA22AB32A15C0EF
:1013E000482959296A297B298091EB029091EC02C6
:1013F000A091ED02B091EE028A019B010827192706
:101400002A273B27C901B80106C0CB01BA016829C8
:1014100079298A299B290E942E2606C19F70F92EC0
:10142000002339F0892F0E94CB25812F0E94D728D5
:10143000FBC0812F0E94CC288F2D0E948D25F4C0E7
:10144000812F323FC9F128F4303F49F0313F79F123
:1014500070C0333FC1F1343F09F44DC06AC000236E
:1014600011F12111DAC0292F2F7181E090E0A0E065
:10147000B0E0AC01BD0104C0440F551F661F771FCB
:101480002A95D2F78091EB029091EC02A091ED02A7
:10149000B091EE028A019B01082719272A273B27D2
:1014A000C901B80125C0223008F0B7C0DCCF002345
:1014B00029F0892F8F712EC00023D9F3892F8F71C6
:1014C0000E948D25AAC0002381F0292F2F7181E071
:1014D00090E0A0E0B0E0BC01CD0104C0660F771F32
:1014E000881F991F2A95D2F703C060E070E0CB01F6
:1014F0000E942E2692C0002381F0192F1F71812F88
:101500000E94CB2528E0129FC001112483608093A4
:101510009C03812F0E94CB2580C081E02C870E94F4
:10152000B2252C85223008F478C082E00E94B225D2
:1015300074C0002339F0222309F4BBCF812F0E940D
:101540005B296BC0222309F4B9CF893349F43FEFFB
:1015500087EE93E0315080409040E1F700C00000FA
:10156000812F0E94F42859C0323FB1F028F4303F57
:1015700049F0313FF9F028C0343FB9F058F0353F19
:1015800071F022C0002309F451C09091AB0381E0B7
:10159000892708C081E008270093AB0347C00111E9
:1015A00045C081E08093AB0341C001113FC0109260
:1015B000AB033CC0002329F08091AA03882329F3C0
:1015C00029C0222311F332C08091AA032223C1F043
:1015D000882341F09091AB0381E089278093AB038E
:1015E0001092AA03812F002319F00E945B291EC0CC
:1015F0000E94F42886E0F60111928A95E9F716C058
:101600008823A1F0011112C09091AB0381E08927DA
:101610008093AB031092AA0309C0F8E0AF1AB10897
:1016200004E0A016B10410F40E94DF1FEE20D1F0F8
:1016300080919C0380FD16C0F601128285958595E8
:1016400085950E94CB25C6010E940E0480919C03C3
:101650008595859585950E948D2504C081E139C9C0
:1016600065E3EACB2D960FB6F894DEBF0FBECDBF73
:10167000DF91CF911F910F91FF90EF90DF90CF906E
:10168000BF90AF909F908F9008959091B60292FF77
:101690000DC0282F2871283019F4877F846006C078
:1016A000282F2471243011F48B7F886093FF0DC0A4
:1016B000282F2871283119F4877E846106C0282FCD
:1016C0002471243111F48B7E88612091B70220FFB0
:1016D0000DC0382F3871383019F4877F816006C00B
:1016E000382F3171313011F48E7F886021FF0DC0A9
:1016F000282F2871283119F4877E816106C0282F90
:101700002171213111F48E7E886194FD877E0895C8
:10171000E9E6F2E043812CE0421B08F440E021E0DE
:10172000628181810C945920E9E6F2E043812CE04A
:10173000420F08F44FEF21E0628181810C9459201F
:10174000E9E6F2E062812FEF621B08F460E021E03D
:10175000438181810C945920E9E6F2E062812FEF08
:10176000620F08F46FEF21E0438181810C945920CE
:10177000E9E6F2E0818121E0438162818C500C94A2
:101780005920E9E6F2E0818121E043816281845FB2
:101790000C945920CF93E82F873080F58091070172
:1017A00090910801892B09F047C0CE2F64E670E0C4
:1017B00080E40E94EE299093080180930701892B11
:1017C000D1F464E670E082E10E94452A909308011A
:1017D00080930701892B79F481E090E001C0880FA4
:1017E000CA95EAF764E670E080950E94452A9093D6
:1017F000080180930701CF910C949A2A90E0FC0194
:101800003797E730F105C0F4EA58FF4F0C941C2BD2
:10181000209A289811C0219A29980EC0229A2A98B5
:101820000BC0239A2B9808C0529A5A9805C0539A15
:101830005B9802C03E9A4698CF910895CF93873027
:1018400008F03FC08091070190910801892B09F0B1
:1018500041C064E670E080E40E94EE2990930801A4
:1018600080930701892B11F0C0E027C064E670E087
:1018700083E10E94452A9093080180930701892BF8
:1018800099F764E670E081E40E94EE2990930801E4
:1018900080930701892B41F784E690E00E94752A26
:1018A00097FF05C09093080180930701DDCFC82FF3
:1018B000C09510920801109207010E949A2A8C2F5D
:1018C0000AC09FB18FB1807F869586959370892BD2
:1018D000809501C080E0CF91089580916902282F02
:1018E000269530E02115310519F48170826005C01C
:1018F0002532310524F0817088648093690208954F
:10190000CF93DF9300D000D0CDB7DEB7AB01BC01E1
:1019100049835A836B837C830E946D0C49815A8171
:101920006B817C8188E090E00F900F900F900F907A
:10193000DF91CF910C94C42A80916D02882319F015
:10194000815080936D026091690270916A0280916A
:101950006B0290916C020C94800C80916D0283302C
:1019600018F48F5F80936D026091690270916A0232
:1019700080916B0290916C020C94800C90916902A2
:1019800090FF36C09170811102C0926006C085320E
:1019900010F0986402C0880F982B90936902662318
:1019A00051F06091690270916A0280916B0290918E
:1019B0006C020E94800C60916902669570E04BE0B9
:1019C00050E083E191E00E945B2C892B19F010928A
:1019D000D10202C00E94622181E08093CD0220E00A
:1019E00040916C0260916B0280916A020C945920C4
:1019F000089561E00C94BE0CE9E6F2E0808181601C
:101A0000808386950C94F90C8091690286958150AB
:101A100009F484E261E00C94BE0C80916902869521
:101A20008F5F853208F081E061E00C94BE0CE9E63E
:101A3000F2E083E0808311828FEF828383831482BC
:101A400060817181828193810C94800CBF92CF92CE
:101A5000DF92EF92FF920F931F93CF93DF93E82EC5
:101A6000F62EE901E42FF0E0611106C0E05DFC4FC5
:101A7000E491BE2E8E2F73C0262F30E0E05DFC4F28
:101A8000E491FE2FCE2ED12C46E0849FC00111247C
:101A90000FEF10E0B8010E94F42A4BEA4603D00190
:101AA000479FB00D1124AE0DB11DAE0DB11D8A2F93
:101AB000880FA80FC801821B930BC89EA001C99E66
:101AC000500DD89E500D1124B52EAF9DC00111248C
:101AD000892F99277801E81AF90AC701C89E700171
:101AE000C99EF00CD89EF00C1124C8018A1B9109E4
:101AF000DC01A29FC001A39F900DB29F900D112405
:101B0000892F9927081B190BC09E9001C19E300D8B
:101B1000D09E300D1124832F6230710591F04CF46A
:101B200061157105E1F061307105B9F48E2FEF2D6B
:101B300016C06430710569F044F06630710579F0C3
:101B40000CC08E2FE52FB32E0AC0E52FBF2E8F2D90
:101B500006C0852FBE2EE32F02C0852FBF2CE98340
:101B60008883BA821B82DF91CF911F910F91FF90E2
:101B7000EF90DF90CF90BF900895CF93DF9300D088
:101B800000D0CDB7DEB79091690290FF0AC09E01E8
:101B90002F5F3F4F0E94260D4B8169818A810E94F1
:101BA00002200F900F900F900F90DF91CF9108952A
:101BB0006091A0028CE090E00C94B22ACF93DF9366
:101BC00026E0729FF001112444E5849FE00DF11D91
:101BD0001124E60FF11DEE0FFF1FE85CFE4FC591CB
:101BE000D491CE01C238D10569F1B0F4C133D10529
:101BF00009F475C048F4C932D10509F469C0CA3284
:101C0000D10509F473C085C0C533D10509F459C0A5
:101C1000C933D105B9F07DC0C33ED10571F138F4A7
:101C2000C03ED105B1F0C23ED10511F172C0C63E31
:101C3000D105B9F1C73ED105C9F1C43ED10509F0BE
:101C400068C024C04091B60240FD5DC041FD5BC04C
:101C500060C02091B60220FD50C02091B70220FF45
:101C600054C18091B60284FD4EC183EE90E04DC117
:101C70002091B60222FF49C1F4CF8091B60282FDC5
:101C80003FC08091B70280FD3EC0EBCF2091B702EC
:101C900021FF3BC18091B60284FD35C187EE90E003
:101CA00034C12091B60223FF30C1F4CF8091B60237
:101CB00083FD2CC08091B70281FFECCF84EE90E0D1
:101CC00024C12091B60225FF20C189E290E01DC108
:101CD0002091B60225FF19C185E390E016C120913D
:101CE000B60226FF12C18AE290E00FC12091B6022F
:101CF00026FF0BC181E390E008C189E390E005C1B4
:101D000082EE90E002C180EE90E0FFC086EE90E0AF
:101D1000FCC0C11552E5D50708F074C0C11521E516
:101D2000D20728F09C2F8827816F906AEEC0C83EAA
:101D3000D10570F5C03ED10508F0E7C0C83AD1051D
:101D4000B8F4C53AD10550F08C2F855AE82FF0E051
:101D5000E05EFE4F808190E09064D7C0C130D10535
:101D600009F4D3C008F4CFC0249708F4CCC0CDC088
:101D7000CF3BD10508F0C7C08C2F885AE82FF0E080
:101D8000EE0FFF1FED5DFE4F808191819464BDC019
:101D9000C11540E2D40760F4C11551E0D50708F041
:101DA000B4C0C03FD10508F4AEC0CE019065ADC04F
:101DB000C11580E4D80708F4A6C0C11590E5D9077D
:101DC00020F4CE019F70906AA0C04C2F437081E038
:101DD00090E002C0880F991F4A95E2F79C68AE0117
:101DE000F4E056954795FA95E1F74370942B2C2F24
:101DF0002F702695269550E2259F90011124822B65
:101E0000932B83C0C11526E5D207E8F5C11545E53A
:101E1000D40748F08C2F0E94450B8F7190E0982FCB
:101E20008827906272C0C11554E5D50728F09C2F11
:101E30008827846F906A69C08C2F86958695AE013D
:101E400043705527C115D34578F490E2899F9001DE
:101E5000112481E090E002C0880F991F4A95E2F7B3
:101E6000822B932B9C6851C090E2899F9001112492
:101E700081E090E002C0880F991F4A95E2F7822B1B
:101E8000932B9A6842C0C1152AE5D20780F5C11587
:101E900049E5D40718F18C2F8F700E94450B9E01E5
:101EA00094E0369527959A95E1F72F7030E0322F20
:101EB00022273069A901482B0FC0CE019056811509
:101EC000904208F58D2F8F710E94450B9E0133279C
:101ED00030628F71A901582BCA0117C0C11558E58E
:101EE000D50788F09C2F8827806F906A0EC0C11597
:101EF0008BE5D80740F0C1159CE5D907F0F6CE0177
:101F00009927906602C080E090E0DF91CF9108951C
:101F1000CF92DF92EF92FF926B017C010E944824E6
:101F200056985E9825982D9826982E9827982F9841
:101F300090E0FC013197E730F105A8F4E358FF4F3A
:101F40000C941C2B259A2D9A0EC0259A2D9A269A10
:101F50002E9A09C0259A2D9A04C0259A2D9A269A60
:101F60002E9A279A2F9AC701B601FF90EF90DF9023
:101F7000CF90089580E290E090930801809307014C
:101F80008091670281110EC00E94E82981E0809350
:101F900067022FEF83ED90E3215080409040E1F7FE
:101FA00000C0000064E670E080E40E94EE29909397
:101FB000080180930701892B09F04EC064E670E0A8
:101FC00080E00E94452A9093080180930701892BA5
:101FD00009F042C064E670E080E00E94452A9093D8
:101FE000080180930701892BB9F564E670E08FE35F
:101FF0000E94452A9093080180930701892B61F57F
:102000000E949A2A64E670E080E40E94EE29909390
:10201000080180930701892BF9F464E670E08CE0F5
:102020000E94452A9093080180930701892BA1F40F
:1020300064E670E080E00E94452A90930801809356
:102040000701892B49F464E670E08FE30E94452A7A
:1020500090930801809307010E949A2A80910701BA
:102060000895CF93DF9356985E9825982D982698DB
:102070002E9827982F98C8E8D0E08FEF90E09983AA
:102080008883AAE8B0E011969C938E93ECE8F0E088
:1020900091838083259A2D9A2FEF80E792E021503B
:1020A00080409040E1F700C00000269A2E9A2FEF62
:1020B00080E792E0215080409040E1F700C00000AE
:1020C000279A2F9A2FEF80E792E02150804090408E
:1020D000E1F700C0000025982D982FEF80E792E0EF
:1020E000215080409040E1F700C0000026982E98D3
:1020F0002FEF80E792E0215080409040E1F700C050
:10210000000027982F988091A40287702FEF829F5C
:10211000C001112495958795959587959927998361
:10212000888311969C938E939183808356985E98B2
:1021300025982D9826982E9827982F98DF91CF9143
:102140000895EF92FF920F931F93CF93DF938091A7
:10215000690280FF06C0C5EFD2E0DE0140E050E03A
:102160000EC080E090E0FC01EB50FD4F1182108228
:102170001282138204968C339105A9F7ECCFFA01F1
:10218000EB50FD4F92812C913181822F921708F4F0
:10219000892F381708F4832F8383381B3183281B3A
:1021A0002C93981B92834C5F5F4F14964C335105D0
:1021B00031F70E94E82964E670E084E80E94EE2985
:1021C00000E010E0C8018B509D4F7C0164E670E098
:1021D000FC0180810E94452A64E670E0F70181815C
:1021E0000E94452A64E670E0F70182810E94452A38
:1021F00064E670E0F70183810E94452A0C5F1F4F5F
:102200000C331105F9F60E949A2A579A8BB18F77F1
:102210009BB190682FB7F894F3E0C133DF0789F0E2
:10222000399148E09BB9000000C037FF8BB9330FEC
:10223000000000C000C000C08BB900C04A9591F7F3
:10224000EBCF2FBF8FE391E00197F1F700C00000C3
:10225000DF91CF911F910F91FF90EF90089584B17E
:10226000807F84B985B1807F85B98AB1837F8AB93F
:102270008BB1837F8BB93E984698089580B38C705C
:1022800080BB81B3836F81BB08959F92AF92BF9251
:10229000CF92DF92EF92FF920F931F93CF93DF9332
:1022A0008091070190910801892B91F0809166023D
:1022B0008F5F8093660281110BC00E94BA0F90E07D
:1022C0009093080180930701892B11F40E9431102B
:1022D00008EA12E02FEAE22E22E0F22E6801C0E0C6
:1022E000912C97E0A92EAC0E8C2F0E94CA0B8A2D40
:1022F0000E94CA0B8C2F0E941E0CF6019081981729
:1023000021F08083BB24B39401C0B12C8A2D0E949C
:102310001E0CF7019081981719F0808381E001C0AD
:1023200080E0B82A9B280E942F11CF5FFFEFCF1AC1
:10233000DF0A2FEFE21AF20AC73099F60E9415233E
:102340006AEF70E00E94F42A9C01682F809162027B
:102350008823E9F110926202E0919E02F0919F02BF
:10236000DF011E9690E07BEF8AEFE82EF12C808152
:102370008B3FA9F0482F50E0681728F0E901C41BF3
:10238000D50BAE0106C06701C41AD50AA601420FDB
:10239000531F4E31510514F0708301C091E0319606
:1023A000EA17FB0721F790936202911002C0911186
:1023B00010C010926102A0919E02B0919F02909174
:1023C0006202ECEBF2E080E03EE03E0F0FC09110C5
:1023D000F0CF809161028111ECCF2091F1028091C8
:1023E000640290916502211118C056C0E80129913C
:1023F0008E014081421741F04C914B3F21F46C9388
:10240000208391E001C081E0119631963E13EECF1A
:102410009093620280936102E0CF892B31F425987A
:102420002D9826982E9827982F9880916402909145
:1024300065029170892B79F480916302882319F0E9
:1024400026982E9802C0269A2E9A9091630281E0D7
:1024500089278093630280916402909165028130A4
:10246000984780F01092F1026091EB027091EC02BB
:102470008091ED029091EE020E94880F1092650209
:10248000109264028091640290916502019690938B
:1024900065028093640210C0892B71F0109265026E
:1024A000109264026091EB027091EC028091ED0257
:1024B0009091EE020E94880F892DDF91CF911F919C
:1024C0000F91FF90EF90DF90CF90BF90AF909F90D3
:1024D00008958091960287FF11C08091E80082FDE7
:1024E00005C0809194028111F8CF11C08091E8005D
:1024F0008B770BC080919402882349F08091E8008B
:1025000080FFF8CF8091E8008E778093E8000895EF
:10251000982F973058F59093E900981739F07091FB
:10252000EC002091ED005091F00003C0242F762F95
:1025300050E021FF19C03091EB003E7F3093EB005B
:102540003091ED003D7F3093ED003091EB00316034
:102550003093EB007093EC002093ED005093F0006B
:102560002091EE0027FF07C09F5FD3CF8F7080932D
:10257000E90081E0089580E0089520919C02309167
:102580009D022617370748F06115710539F420912F
:10259000E8002E772093E80001C0B901FC0120E09B
:1025A0006115710591F180919402882309F440C06E
:1025B000853009F43FC08091E80083FD3DC08091E3
:1025C000E80082FD2FC08091E80080FFE9CF2091D4
:1025D000F3008091F20090E0922B6115710559F0A3
:1025E0008830910540F424912093F1003196615098
:1025F00071090196F2CF21E0089709F020E080915F
:10260000E8008E778093E800CBCF2111CCCF0AC0B1
:1026100080919402882361F0853061F08091E80018
:1026200083FD0AC08091E80082FFF2CF80E0089528
:1026300082E0089583E0089581E0089520919C024E
:1026400030919D022617370748F06115710539F45E
:102650002091E8002E772093E80001C0B90140E006
:1026600061157105A9F120919402222309F443C058
:10267000253009F442C02091E80023FD40C020919C
:10268000E80022FD32C02091E80020FFE9CF409110
:10269000F3002091F20030E0342BFC01CF016115F2
:1026A000710559F02830310540F481918093F10093
:1026B000615071092F5F3F4FF1CF41E02830310564
:1026C00009F040E02091E8002E772093E800C8CF81
:1026D0004111C9CF0AC080919402882361F08530EE
:1026E00061F08091E80083FD0AC08091E80082FFDC
:1026F000F2CF80E0089582E0089583E0089581E0BC
:1027000008951F93CF93DF93CDB7DEB7AA970FB687
:10271000F894DEBF0FBECDBFE6E9F2E088E08E0F91
:102720009091F10091938E13FBCF809197028930A5
:10273000B9F150F4823009F4A5C0833009F45FC0C8
:10274000813009F0EEC00CC08B3009F470C008F481
:1027500088C0823409F4AEC0853409F4C5C0E1C034
:1027600080919602813A09F0DCC08091E800877F71
:102770008093E80080919A0290919B02892B21F42A
:1027800060E282E792E003C060E080E090E070E009
:102790000E941E138091E8008B778093E800C1C0EF
:1027A00080919602813209F0BCC080919A0290918A
:1027B0009B02029708F0B5C08091E800877F809364
:1027C000E8008091E80082FD05C0809194028111AB
:1027D000F8CFA7C02091F3008091F20090E0922BF7
:1027E000029729F48091F1008B7F813021F4809150
:1027F000F100809371028091E8008B7758C080913E
:102800009602813A09F08DC080919A0290919B02C4
:10281000892B09F086C08091E800877F8093E800CB
:102820008091E80080FFFCCF809106013BC0809141
:102830009602813209F075C080919A0290919B02B4
:10284000892B09F06EC08091E800877F8093E800B3
:102850000E94691280919802809306010E94A2282A
:1028600060C080919602813209F05BC08091E800DF
:10287000877F8093E8000E9469128091990280937B
:1028800070024FC080919602813A09F04AC080914F
:10289000E800877F8093E8008091E80080FFFCCF0C
:1028A000809170028093F1008091E8008E77809390
:1028B000E8002FC080919602803C99F580919A02A1
:1028C00090919B02029741F5809198029091990214
:1028D000892B11F58091E800877F8093E8006BE1F8
:1028E00070E082EE94E013C080919602803CC9F4BF
:1028F00080919A0290919B02079771F48091E80071
:10290000877F8093E80062EB70E080E394E00E94B0
:10291000BD120E94691205C08091EB008062809315
:10292000EB008091E80083FFA2C180919602909114
:102930009702492F50E04A30510508F098C1FA013A
:10294000EC57FF4F0C941C2B803821F0823809F093
:102950008EC108C08091920290919302992389F0D0
:1029600082600FC080919A028F70873008F07FC11B
:102970008093E9008091EB0085FB882780F9109215
:10298000E9009091E800977F9093E8008093F10030
:102990001092F10036C1282F2D7F09F068C18823DD
:1029A00019F0823061F063C180919802813009F0A2
:1029B0005EC1933009F080E0809393022EC0809135
:1029C000980281112AC080919A028F702FEF280FF0
:1029D000263008F04CC18093E9002091EB0020FFE5
:1029E0001CC0933021F48091EB00806214C0909160
:1029F000EB0090619093EB0021E030E0A90102C070
:102A0000440F551F8A95E2F74093EA001092EA00BE
:102A10008091EB0088608093EB001092E900809138
:102A2000E800877FF1C0811122C1109198021F77C1
:102A30008091E3008078812B8093E3008091E8000F
:102A4000877F8093E8000E9469128091E80080FFF0
:102A5000FCCF8091E30080688093E300111102C0F5
:102A600082E001C083E08093940201C180588230EB
:102A700008F0FDC080919802909199028C3D53E03E
:102A8000950779F583E08A838AE289834FB7F894C2
:102A9000DE01139620E03EE051E2E32FF0E0509398
:102AA0005700E49120FF03C0E295EF703F5FEF70A5
:102AB0008E2F90E0EA3010F0C79601C0C0968D933B
:102AC0009D932F5F243149F74FBF8091E800877FA6
:102AD0008093E8006AE270E0CE0101960E941E1326
:102AE0007EC040919A0250919B02292F33272330B8
:102AF000310511F16CF42130310509F4C7C02230E1
:102B0000310509F0B4C062E570E08EEF95E060C079
:102B10002132310509F43EC02232310509F447C0A3
:102B20002F30310509F0A3C0E0E9F6E0E4916E2F03
:102B300070E08EE896E048C0992781309105D1F089
:102B40005CF4892B09F093C0EAE8F6E0E4916E2F7B
:102B500070E08AE896E038C08230910599F00397DA
:102B600009F085C0E2E6F6E0E4916E2F70E082E6BF
:102B700096E02AC0E0E8F6E0E4916E2F70E080E88D
:102B800096E022C0E8E6F6E0E4916E2F70E088E679
:102B900096E01AC04115510509F47DC04130510538
:102BA00009F065C069E070E089E296E011C0411566
:102BB000510509F475C04130510509F058C060EC69
:102BC00070E08EEF94E004C06115710509F44FC008
:102BD0002091E800277F2093E8000E94BD12809199
:102BE000E8008B778093E80042C0803809F03FC04E
:102BF0008091E800877F8093E80080919502809320
:102C0000F1008091E8008E778093E8000E946912BD
:102C10002EC081112CC010919802123040F5809185
:102C2000E800877F8093E800109395020E94691264
:102C3000111106C08091E30087FD02C081E001C050
:102C400084E08093940242E061EC81E00E9488126B
:102C500042E261EC82E00E94881242E361EC83E090
:102C60000E94881242E360EC84E00E948812809106
:102C7000E80083FF1AC08091E800877F8093E80016
:102C80008091EB0080628093EB000FC062E170E006
:102C900080E596E09DCF69E070E080E196E098CF16
:102CA00060E470E08EEB95E093CFAA960FB6F894AF
:102CB000DEBF0FBECDBFDF91CF911F9108951F9250
:102CC0000F920FB60F9211242F933F934F935F9360
:102CD0006F937F938F939F93AF93BF93CF93DF9324
:102CE000EF93FF93C091E900CF708091EC00D82F53
:102CF000D17080FDD0E81092E9008091F000877FCC
:102D00008093F00078940E9481131092E9008091E2
:102D1000F00088608093F000CD2BCF70C093E90065
:102D2000FF91EF91DF91CF91BF91AF919F918F91E3
:102D30007F916F915F914F913F912F910F900FBEB7
:102D40000F901F901895E8EDF0E080818E7F8083D2
:102D50001092E2001092DA001092E100A0EEB0E0D2
:102D60008C9181608C9380818F77808319BCA7EDD3
:102D7000B0E08C918E7F8C9380818F7E80831092C7
:102D800068020895CF92DF92EF92FF920F931F9304
:102D9000CF93DF93C8EDD0E088818F7E8883E7ED05
:102DA000F0E080818160808384E082BF81E0809355
:102DB000680288818E7F888302EE10E0F80110821D
:102DC0001092DA0081EEC82ED12CF6011082888193
:102DD0008F77888388818068888388818F7D8883C6
:102DE00019BC1092940210929502109293021092C4
:102DF000920290EEE92EF12CF70180818B7F808387
:102E000088818160888342E060E080E00E948812CF
:102E1000F60180818E7F8083F801808181608083CC
:102E2000808188608083F70180818E7F80838881A4
:102E300080618883DF91CF911F910F91FF90EF9078
:102E4000DF90CF9008951F920F920FB60F9211242A
:102E50002F933F934F935F936F937F938F939F93A2
:102E6000AF93BF93EF93FF938091E10082FF09C07E
:102E70008091E20082FF05C08091E1008B7F80930A
:102E8000E1008091DA0080FF2AC08091D80080FFA5
:102E900026C08091DA008E7F8093DA008091D9007D
:102EA00080FF18C080E189BD82E189BD09B400FEC0
:102EB000FDCF81E0809394028091680281110FC060
:102EC0000E94A3160E94C2168091E2008460809343
:102ED000E20005C019BC1092940210926802809121
:102EE000E10080FF17C08091E20080FF13C0809155
:102EF000E2008E7F8093E2008091E2008061809307
:102F0000E2008091D80080628093D80019BC85E0EF
:102F1000809394028091E10084FF43C08091E2009D
:102F200084FF3FC080E189BD82E189BD09B400FE14
:102F3000FDCF8091D8008F7D8093D8008091E100F3
:102F40008F7E8093E1008091E2008F7E8093E2008B
:102F50008091E20081608093E20080919502882355
:102F600011F084E007C08091E30087FD02C081E09A
:102F700001C083E0809394020E94A2280E94DF1F78
:102F800010926F0280916E02882349F0809169024D
:102F900081608093690260E086950E94BE0C0E9469
:102FA00062218091E10083FF27C08091E20083FFCE
:102FB00023C08091E100877F8093E10082E08093CD
:102FC0009402109295028091E1008E7F8093E1003F
:102FD0008091E2008E7F8093E2008091E200806128
:102FE0008093E20042E060E080E00E9488128091DD
:102FF000F00088608093F000FF91EF91BF91AF9156
:103000009F918F917F916F915F914F913F912F9100
:103010000F900FBE0F901F9018952091E4003091F3
:10302000E50095E64091EC00842F817040FF22C0BE
:103030008091E80080FD1CC080919402882391F06B
:10304000853091F08091EB0085FD10C04091E40047
:103050005091E5004217530729F39A01915011F757
:1030600084E0089582E0089583E0089581E0089562
:1030700080E008954091E80042FFDECF0895CF92AE
:10308000DF92FF920F931F93CF93DF931F92CDB7E1
:10309000DEB7F82E8B0199830E940D18998181115A
:1030A0001CC0CF2CD92E01151105B1F08091E8007C
:1030B00085FD0AC08091E8008E778093E8000E9429
:1030C0000D18882381F309C0F60181916F01809367
:1030D000F10001501109E7CF80E00F90DF91CF910F
:1030E0001F910F91FF90DF90CF90089580919402EF
:1030F000843011F081E0089582E00895CF93DF934A
:1031000000D01F92CDB7DEB790919402943019F59C
:1031100089837B836A8382E08093E9008FEF9091BB
:10312000E800815095FD06C095ED9A95F1F70000F5
:103130008111F5CF8091E80085FF0DC040E050E09F
:1031400063E070E0CE0101960E943F188091E80094
:103150008E778093E8000F900F900F90DF91CF91C2
:103160000895CF93DF93EC010E947618823011F01E
:10317000843031F4BE0184E0DF91CF910C947E184D
:10318000DF91CF910895BC016058710983E00C94E0
:103190007E18CF93DF93EC010E947618823011F0F5
:1031A0008430F9F482E08093E9009FEF8091E80099
:1031B000915085FD06C085ED8A95F1F700009111CB
:1031C000F5CF8091E80085FF0CC040E050E066E05C
:1031D00070E0CE010E943F188091E8008E778093C6
:1031E000E800DF91CF910895CF93DF93EC010E9427
:1031F0007618823011F08430D9F580910601882349
:1032000039F08091B60287FF03C060E282E002C01D
:1032100068E081E08093E9008FEF9091E8008150B1
:1032200095FD06C095ED9A95F1F700008111F5CF57
:103230008091E80085FF1CC080910601811105C0C6
:1032400040E050E068E070E003C070E040E050E033
:10325000CE010E943F188091E8008E778093E800AD
:1032600080E2FE01A2E7B2E001900D928A95E1F7BB
:10327000DF91CF910895CF93DF93CDB7DEB7CB55D4
:10328000D1090FB6F894DEBF0FBECDBF84B7877FDC
:1032900084BF0FB6F894A8958091600088618093F0
:1032A0006000109260000FBE90E080E80FB6F894C6
:1032B00080936100909361000FBE85B7806885BFE1
:1032C00085B7806885BF0E94A3160E94C2168091B0
:1032D000E20084608093E2007894809194028823D5
:1032E000A1F01091E9001F709091EC00892F81707E
:1032F00090FD80E8182B1092E9008091E80083FD92
:103300000E9481131F701093E90082E084BD93E056
:1033100095BD9AEF97BD80936E000E94BA0F90E022
:1033200090930801809307010E942F110E943E1183
:10333000A8EAB2E0ECEBF2E06EE0D62EDE0E1192DF
:103340001D92DE12FCCF8EE090E00E942E2B809327
:103350009E0290939F02FC010E962BEF2193E8179B
:10336000F907E1F780E090E00E94AC2A8F3E9E4F83
:1033700011F00E94D4238CE090E00E949E2A90E0FD
:10338000A0E0B0E08093A0029093A102A093A202DB
:10339000B093A30289EA8093800089E08093810042
:1033A00024982C983F988AB18F7C8AB96E98479A56
:1033B0008BB180638BB9769A8FE090E00E94A62A49
:1033C0006093A4027093A5028093A6029093A70233
:1033D00067703FEF639FB0011124759567957595F0
:1033E00067957727709389006093880070938B00AE
:1033F00060938A0070938D0060938C000E9431105E
:1034000080E090E00E94AC2A8F3E9E4F11F00E9417
:10341000D42382E090E00E949E2A8093DC020E94E6
:10342000C3239093B7028093B60283E090E00E949A
:103430009E2A682F70E080E090E00E9469268091CB
:10344000B802811136C080E090E00E94AC2A8F3E25
:103450009E4F21F00E94D4230E94170D88E090E037
:103460000E94A62A6093690270936A0280936B029D
:1034700090936C026E7F71F40E94170D88E090E0CB
:103480000E94A62A6093690270936A0280936B027D
:1034900090936C020E946D0C1092D102809169028F
:1034A00080FF04C060E086950E94BE0C81E080939E
:1034B000B8026091EB027091EC028091ED02909164
:1034C000EE020E94880F89E091E09093BA02809307
:1034D000B90241E4E42EF12CEC0EFD1EF2E0EF0EF9
:1034E000F11C80919402853009F065C080919402AE
:1034F000843009F441C01092BB0220E488E190E0DE
:103500000FB6F894A895809360000FBE20936000DA
:103510001092D10280916F02811117C081E08093D7
:103520006F0280916902982F917090936E028E7F46
:10353000809369022FEF30E742E021503040404055
:10354000E1F700C000000E94A11083B7817F846072
:1035500083BF83B7816083BF7894889583B78E7F5C
:1035600083BF0FB6F894A89580916000886180931E
:103570006000109260000FBE80919302882309F4CE
:10358000B0CF0E94BA0F90E090930801809307019A
:103590000E942F110E943E11ECEBF2E01192DE121C
:1035A000FDCF0E944511ECEBF2E08191811149C2FF
:1035B000DE12FBCF96CF0E944511EDEDF2E0ACEBB1
:1035C000B2E000E010E0302F2D9191919227A1F10F
:1035D00080E0CC24C3944C2D492351F161968FAFE8
:1035E000619762963FAF62972C2181E009F480E0F9
:1035F00063968FAF63970E9415238160782F65963D
:103600009FAF8EAF659761964FAD619762965FAD44
:10361000629763966FAD639765968FAD65970E94CD
:10362000DF1EF801E352FD4F8081C826C0822AC008
:103630008F5FCC0C863079F60F5F1F4F0E3011056F
:1036400009F0C1CF8FEF66968FAF669767968FAF01
:10365000679768961FAE68970E9415238160782F40
:103660006A969FAF8EAF6A9766964FAD66976796DC
:103670005FAD679768966FAD68976A968FAD6A97EA
:103680000E94DF1E8091D102882309F4A0C080919E
:10369000D002E0916902E695E81BE093CC0282300B
:1036A00049F4F0E0EB52F94FE4910E2F10E02BECCF
:1036B0003EE149C0863049F4F0E0EE52F94FE49122
:1036C0000E2F10E02BEB3EE13EC0893051F4E69521
:1036D000F0E0E153F94FE4910E2F10E027E43DE1D3
:1036E00032C08F3051F4E695F0E0E453F94FE491A5
:1036F0000E2F10E02CE33EE126C0853149F4F0E0C6
:10370000E753F94FE4910E2F10E02EED3DE11BC081
:10371000883181F0833239F4E7ECF6E005911491B9
:1037200027E130E210C0843251F404EF11E021E7C8
:103730003DE109C008EE13E029EA3DE104C000EDD7
:1037400017E026E43DE18091CD028823E9F0109254
:10375000CD026B962FAF6B976C963FAF6C970E9424
:103760001523A80140955095840F951F9093CB0287
:103770008093CA021092CF021092CE026C963FAD97
:103780006C976B962FAD6B978091CA029091CB028C
:103790006B962FAF6B976C963FAF6C970E94EB22A6
:1037A0006B962FAD6B976C963FAD6C97801791071A
:1037B00070F0E091CA02F091CB020E0F1F1F109320
:1037C000CB020093CA028AEC92E0F901099580913C
:1037D000D9029091DA020E94EB229C019091D802CA
:1037E000992321F02431310508F478C08091D40266
:1037F0001091D50281110BC0111144C12091D60244
:10380000211140C12091D70221113CC167C09F3FC7
:1038100019F09F5F9093D802181624F40E943A2260
:103820008093D4028091D40287FF05C00E943A227F
:1038300081958093D402111624F40E943A22809339
:10384000D5028091D50287FF05C00E943A2281955A
:103850008093D5023091D4023323E1F02091D50238
:103860002223C1F045EB3403C0011124892F990FA5
:10387000990B009709F481E08093D40235EB230380
:10388000C0011124892F990F990B009709F481E049
:103890008093D5028091D602181624F40E94182233
:1038A0008093D6028091D60287FF05C00E9418221D
:1038B00081958093D6028091D702181624F40E9435
:1038C00018228093D7028091D70287FF05C00E94FB
:1038D000182281958093D7020E9421231091DB0248
:1038E0000E94DF1F181721F00E94DF1F8093DB0268
:1038F00080919402843009F0F4CD8093E9008091A6
:10390000E80082FFEECD8091E80085FF24C00E9490
:103910000D18882311F091E01FC000E410E0CE01E3
:1039200001965C018091E80085FD0AC08091E80065
:103930008B778093E8000E940D18882341F0EBCF2D
:103940008091F100F50181935F010150110901158A
:10395000110541F7E0CF90E08091E8008B778093EC
:10396000E800992309F4BDCD1981111115C080918A
:10397000F102882361F11092F10281E08093F0025C
:1039800022961FAE229723961FAE23978EEF249682
:103990008FAF249763E070C01130C9F422961FAE38
:1039A000229723961FAF23978CE0E1E5F1E0D70142
:1039B00001900D928A95E1F78EEF60968FAF609738
:1039C0006FE0CE018F5B9F4F0E947B218ACD80915B
:1039D000F0028823A1F1123019F0133091F047C0A2
:1039E0006091EB027091EC028091ED029091EE02F9
:1039F0000E94482422961FAE229723961FAF23973A
:103A000015C08A81813039F040F0823081F581E043
:103A10008093EF0202C01092EF0222961FAE22970F
:103A200083E023968FAF23978091EF0224968FAF88
:103A300024978EEF25968FAF259764E01DC08FEFFA
:103A400017C080E189BD82E189BD09B400FEFDCFC8
:103A50008091D8008F7D8093D8008091E0008260B3
:103A60008093E0008091E00081FDFCCF3ACD81E0C1
:103A700022968FAF229761E0CE018F5B9F4F0E940D
:103A80007B212FCD9F3F09F0C4CECCCE0895EF927D
:103A9000FF921F93CF93DF93EC0185EFE82E82E036
:103AA000F82E10E08C81970140916C0260916B02BE
:103AB000810F0E94260D1F5E84E0E80EF11C1F3F5F
:103AC00089F70E94A1108A819C8180FF02C09F5FBC
:103AD00001C091509C83DF91CF911F91FF90EF9097
:103AE0000895EF92FF920F931F93CF93DF937C0182
:103AF000C5EFD2E000E010E0F70184810730110546
:103B00001CF4882339F002C0811104C09E01409149
:103B10006C0202C09E0140E060916B0280916A02DB
:103B20000E94260D0F5F1F4F24960F30110521F7BD
:103B30000E94A110F701248130E02F5F3F4F2170D8
:103B400033272483DF91CF911F910F91FF90EF9046
:103B50000895EF92FF920F931F93CF93DF93EC01A1
:103B60002C813D812F5F3F4F217033273D832C8374
:103B700085EFE82E82E0F82E10E005E5812F86958E
:103B80004C815D81480F511D842F817097014091B8
:103B90006C0260916B02809F802D11240E94260D83
:103BA0001F5F84E0E80EF11C1F3041F7DF91CF91D9
:103BB0001F910F91FF90EF900C94A1100F931F9302
:103BC000CF93DF9380E090E0FC01EB50FD4F11823A
:103BD00010821282138204968C339105A9F7C0E0FB
:103BE000D0E00FE010E0CE01B8010E94082BFC01EC
:103BF0008091F302082E000C990BEE0FFF1FEE0FC1
:103C0000FF1FC817D907A4F080911F01082E000CD0
:103C1000990B8C179D0764F09F012B503D4F4091ED
:103C20006C0260916B0280916A020E94260D06C0B0
:103C3000EB50FD4F11821082128213822196CF30F9
:103C4000D10589F60E94A11080911E019091F30286
:103C5000980F9093F30220911F01280F20931F01CA
:103C6000121614F49E301CF0819580931E01DF9192
:103C7000CF911F910F9108959F92AF92BF92CF92D3
:103C8000DF92EF92FF920F931F93CF93DF93FC018C
:103C9000828180FF03C0BB24BA9402C0BB24B394CA
:103CA00025EFE22E22E0F22E08EF12E0C0E0D0E095
:103CB0003FE0932EF80132971082F7011082F8014D
:103CC00031971082F801108294E0C92ED12CA12CDA
:103CD0008091F2028A0D80312CF0692D0E94E62A33
:103CE000892F02C087FD815F082E000C990BC81731
:103CF000D90791F480916C028C9DA0018D9D500D8F
:103D000011245595479555954795970160916B02FC
:103D100080916A020E94260DAB0CF1E0CF1AD10807
:103D2000B9F6219684E0E80EF11C0C5F1F4FCF30EE
:103D3000D10509F0BFCF0E94A1108091F20291E05D
:103D4000B91206C0811102C08EE007C0815005C0C3
:103D500090E00196BE010E94082B8093F202DF9151
:103D6000CF911F910F91FF90EF90DF90CF90BF9078
:103D7000AF909F900895CF93DF93EC01E9E6F2E0D6
:103D8000438162818C810E94BD0D8C818F5F8C8309
:103D9000DF91CF910895CF93DF93EC01EC81F0E0B8
:103DA000E252F94F4491E9E6F2E0628181810E949A
:103DB000BD0D8C818F5F8C83DF91CF910895EF9241
:103DC000FF920F931F93CF93DF93CDB7DEB7679723
:103DD0000FB6F894DEBF0FBECDBF4B8B5C8B6D8BE7
:103DE0007E8B8F8B0E891F8901151105C1F15F3FF5
:103DF00011F44F3FA1F1E42EF12CA1E0B0E0042E2C
:103E000001C0AA0F0A94EAF7852F90E0662319F003
:103E10002091AB0306C09C01295C3C4FF901208135
:103E20002A232223A9F046E0489F9001499F300DA4
:103E30001124F701E20FF31FEE0FFF1FEE57FE4FA5
:103E400040815181FC01E95CFC4F9081A92B06C0A7
:103E5000FC01E95CFC4FA0958081A823A08386E04B
:103E6000FE013D96DF01982F1D929A95E9F74D8747
:103E70005E876F87198B088BDE01179601900D9274
:103E80008A95E1F7CE0107960E94D826811137C0A6
:103E900086E0FE013796DE01119601900D928A951B
:103EA000E1F7FF81E8856A857B856115710539F148
:103EB000EF3F11F4FF3F19F12091B20330E0C90147
:103EC0000196877099274091E30350E08417950786
:103ED00079F1F983EA837D836C8396E0929FD00128
:103EE000939FB00D1124AD54BC4FFE01319601904B
:103EF0000D929A95E1F78093B2030E94732616E023
:103F00008091E3039091B203891701F1189FC001DA
:103F100011248D549C4F0E94D8268823B9F080919B
:103F2000E30390E00196877099278093E303E8CF3D
:103F30000E94A2281092B2031092E303ECEAF3E08D
:103F400086E0DF011D928A95E9F7D9CF67960FB613
:103F5000F894DEBF0FBECDBFDF91CF911F910F91BF
:103F6000FF90EF900895209135033091360382172A
:103F7000930771F09093360380933503E091B90273
:103F8000F091BA02309721F00084F185E02D099478
:103F9000089520913303309134038217930771F011
:103FA0009093340380933303E091B902F091BA0205
:103FB000309721F00680F781E02D09940895E09173
:103FC000B902F091BA02309721F00190F081E02D12
:103FD000099480E008959091690290FF04C096953D
:103FE000981740F003C0811105C090E0961710F4B7
:103FF0000C940D0D0C94F90C882311F0FA0101C0FA
:10400000FB0109949091690290FF10C020E030E01C
:10401000F901EB50FD4F81836083428313822C5F53
:104020003F4F2C333105A1F70C94A11008950F9345
:104030001F93CF93DF9300D000D0CDB7DEB78C01B4
:104040008091F40281110AC09E012F5F3F4F4FEF14
:104050006FEF0E94260D8A818093F402F80184811B
:10406000813051F028F0823061F44091F4020AC0AE
:104070008091F40240E007C06091F40240E080E0EB
:1040800003C040E080E060E00E940220F80124814B
:1040900030E0C901019663E070E00E94082B848340
:1040A0000F900F900F900F90DF91CF911F910F9174
:1040B00008955F926F927F928F929F92AF92BF927C
:1040C000CF92DF92EF92FF920F931F93CF93DF93E4
:1040D00000D000D0CDB7DEB7182F762E042F622E79
:1040E0009091690290FF6DC0E92FE695AE2FB0E088
:1040F000A35ABE4F8C918093D0029E7F923061F480
:104100009E012F5F3F4F812F0E94260D4B816981B9
:104110008A810E94022043C0823019F400916C020F
:104120003EC0863019F410916A0239C08930D9F343
:104130008931A9F5E9518E2F8170582EE695F0E06E
:10414000E752F94FA590B49085EFC82E82E0D82EA3
:10415000E12CF12CBB249FE0892E912CEA9CC0011C
:10416000EB9C900DFA9C900D1124B4010E94F42A4E
:10417000812F511002C0860F01C0861B9601402F6F
:10418000672D0E94260D8FEFE81AF80A84E0C80E0A
:10419000D11C8FE0E816F10409F70E94A1101093DA
:1041A0006A0270926B0200936C02662051F060917B
:1041B000690270916A0280916B0290916C020E9478
:1041C000800C0F900F900F900F90DF91CF911F9167
:1041D0000F91FF90EF90DF90CF90BF90AF909F90A6
:1041E0008F907F906F905F9008950F931F93CF9360
:1041F000DF93C62FD42F022FFC0182818823C9F0C0
:1042000060935D020E9415239093320380933103E3
:1042100080E28C0F883008F050C0C77081E001C088
:10422000880FCA95EAF7DF91CF911F910F910C94F7
:10423000D72810915D02161330C080913103909100
:1042400032030E94EB22883C910538F5C0E2CD0F85
:104250001D17B9F080E2810F883040F4177081E0BB
:1042600001C0880F1A95EAF70E94CC28C83048F49C
:1042700081E09D2F977001C0880F9A95EAF70E9400
:10428000D728802F0E94E128C830B8F4D77081E089
:1042900001C0880FDA95EAF70AC080E28C0F8830F7
:1042A00060F4C77081E001C0880FCA95EAF7DF911A
:1042B000CF911F910F910C94CC28DF91CF911F913A
:1042C0000F91089560916902669570E04BE050E0AF
:1042D00083E191E00E945B2C892B19F481E08093AB
:1042E000D1020E9415239093CB028093CA020895B5
:1042F00080917102089520919402243099F423E072
:104300002093E90070E040E050E00E943F188823CD
:1043100021F01092F0021092F1028091E8008E7765
:104320008093E8000895803F39F48091D50287FF9B
:104330006CC01092D50269C0813F29F48091D502EA
:104340001816BCF362C09091D402823F29F497FF03
:104350005CC01092D40259C0833F19F41916CCF3F3
:1043600054C0893F41F48091D60218160CF04DC01C
:104370001092D6024AC08A3F29F48091D60287FF64
:1043800044C0F6CF8B3F39F48091D70287FF3DC000
:104390001092D7023AC08C3F29F48091D7021816A8
:1043A000BCF333C0843F21F48091D3028E7F17C0C9
:1043B000853F21F48091D3028D7F11C0863F21F487
:1043C0008091D3028B7F0BC0873F21F48091D30271
:1043D000877F05C0883F31F48091D3028F7E809320
:1043E000D30213C08D3F21F48091A9038E7F0BC0AF
:1043F0008E3F21F48091A9038D7F05C08F3F29F462
:104400008091A9038B7F8093A9038091D4028111AD
:104410000EC08091D50281110AC08091D60281110F
:1044200006C08091D702811102C01092D80208956F
:104430008091A90380FD16C081FD16C082FD18C0C1
:104440008091D802882391F0883290F428E0829FEE
:10445000C001112468E270E00E94082B862F672BB0
:1044600029F007C082E0089584E0089581E008956E
:1044700088E008958091A90380FD17C081FD17C0D1
:1044800082FD19C08091D802882399F08C3398F46A
:1044900023E2829FC00111246CE370E00E94082B8C
:1044A000862F672B49F481E0089588E0089581E123
:1044B000089585E0089583E20895803F21F40E94E5
:1044C0003A22819504C0813F29F40E943A228093C8
:1044D000D5020895823F21F40E943A22819504C0BA
:1044E000833F29F40E943A228093D4020895893FA1
:1044F00019F40E94182205C08A3F31F40E94182244
:1045000081958093D60208958B3F21F40E94182252
:10451000819504C08C3F29F40E9418228093D70211
:104520000895843F21F48091D302816017C0853FB4
:1045300021F48091D302826011C0863F21F48091E2
:10454000D30284600BC0873F21F48091D30288603E
:1045500005C0883F31F48091D30280618093D302FB
:1045600008958D3F21F48091A90381600BC08E3F97
:1045700021F48091A903826005C08F3F29F48091C6
:10458000A90384608093A903089578941F920F92E1
:104590000FB60F9211248F939F93AF93BF93809187
:1045A000A5039091A603A091A703B091A80301963B
:1045B000A11DB11D8093A5039093A603A093A7030B
:1045C000B093A803BF91AF919F918F910F900FBEB1
:1045D0000F901F901895CF92DF92EF92FF920F935A
:1045E0001F932FB7F8944091A5035091A6036091B3
:1045F000A7037091A8032FBF6A017B01EE24FF245B
:104600008C0120E030E0C016D106E206F30610F47B
:10461000415051099A01281B390BC9011F910F9173
:10462000FF90EF90DF90CF9008952FB7F89480918E
:10463000A5039091A603A091A703B091A8032FBF53
:104640000895E091B902F091BA02309749F082E002
:104650008093D2020480F581E02D82ED92E00995ED
:104660000E9415239093DA028093D90208951F9235
:104670000F920FB60F9211248F939F93AF93BF9316
:104680008091BB02811113C08091A5039091A60374
:10469000A091A703B091A8034196A11DB11D8093DD
:1046A000A5039093A603A093A703B093A803BF917B
:1046B000AF919F918F910F900FBE0F901F90189503
:1046C00020910601222321F02091B60227FD04C08B
:1046D000FC013296089619C0262F26952695269518
:1046E0002E31C0F4FC01E20FF11D677081E090E013
:1046F00001C0880F6A95EAF78095928189238283A9
:1047000008953196E817F90729F020812613F9CF8B
:104710001082F7CF089520910601222321F02091E5
:10472000B60227FD05C0FC0132962FEF30E019C01C
:10473000262F2695269526952E3120F5FC01E20F91
:10474000F11D677081E090E001C0880F6A95EAF77B
:104750009281892B828308952F3F39F03F5F363055
:1047600041F041914613F8CF0DC04111F7CF232FEF
:10477000F5CF2F3F39F0FC01E20FF11D27FDFA952F
:10478000628308950895CF9384E090E00E949E2A6A
:10479000C82F81E290E00E949E2A2C2F30E0A901D0
:1047A000582BCA01CF9108956FEE7EEF80E090E024
:1047B0000E94D02A60E082E090E00E94B22A60E08D
:1047C00083E090E00E94B22A1092A1031092A2030B
:1047D0001092A3031092A40360E084E090E00E9492
:1047E000B22A60E081E290E00E94B22A60E085E0B7
:1047F00090E00E94B22A60E086E090E00E94B22A37
:104800006FEF87E090E00E94B22A40E050E0BA01EA
:1048100088E090E00E94C42A60E08DE090E00E9471
:10482000B22A40E050E0BA0188E190E00E94C42A38
:1048300060E087E190E00E94B22A40E050E0BA01D7
:104840008CE190E00E94C42A60E080E290E00E9447
:10485000B22A1092A4021092A5021092A6021092FF
:10486000A70284E080618093A4024091A402509149
:10487000A5026091A6027091A7028FE090E00E94CD
:10488000C42A40E050E0BA0183E190E00C94C42ACD
:10489000CF92DF92EF92FF926C01EE24FF24C114BD
:1048A000D104E104F10421F0C701B60120E101C007
:1048B00020E0C72ED82EE92EFF24C114D104E10434
:1048C000F10419F0285FC701B6016B017C0154E0C7
:1048D000F694E794D794C7945A95D1F7C114D104AC
:1048E000E104F10419F02C5FC701B6016B017C01F2
:1048F00042E0F694E794D794C7944A95D1F7C1144F
:10490000D104E104F10419F02E5FC701B601DC0106
:10491000CB01B695A79597958795892B8A2B8B2BDD
:1049200009F02F5F822FFF90EF90DF90CF900895D6
:104930008091A00381111092A003089590919E038D
:1049400080919F03892B20919D03982F922B909308
:1049500045038091A0038823D9F0892B80934503D8
:1049600080910601882331F08091B60287FF02C052
:104970008EE101C086E0E7E4F3E090E0815028F0AA
:1049800021912223D9F39F5FF9CF91110E9498249E
:10499000E091B902F091BA023097A9F08091060136
:1049A000882359F08091B60287FF07C080914503A4
:1049B0008093460385E0809345030280F381E02DD8
:1049C00085E493E009940895BF92CF92DF92EF922D
:1049D000FF920F931F93CF93DF938C01C090A1039D
:1049E000D090A203E090A303F090A4038091EB0287
:1049F0009091EC02A091ED02B091EE02C82AD92A62
:104A0000EA2AFB2ACFE1D0E0D701C6010C2E04C070
:104A1000B695A795979587950A94D2F780FF07C01A
:104A2000BC2EB8018C2F0E94DE0D019719F421973E
:104A300058F7B12C8B2DDF91CF911F910F91FF90E3
:104A4000EF90DF90CF90BF900895CF93DF93EC016C
:104A50000E94E424BE010E94DE0DDF91CF910895F3
:104A6000292F220F920F990F890F682F669566954F
:104A70006695982F977085E0689FB001112440E0FB
:104A800050E080E0FA01E60FF71FEB59FC4F208160
:104A900030E0092E02C0369527950A94E2F721707E
:104AA0003327042E01C0220F0A94EAF7822B4F5FAE
:104AB0005F4F4530510531F70895292F220F920F8E
:104AC000990F890FA82FA695A695A695877051E0F6
:104AD00001C0550F8A95EAF785E0A89FD0011124FF
:104AE00020E030E070E0F901EA0FFB1FEB59FC4FCA
:104AF0004081CB01022E02C0969587950A94E2F779
:104B000081709927819584278523842780832F5F4F
:104B10003F4F2530310539F708950F931F9341E03A
:104B200050E060E070E004C0440F551F661F771F1F
:104B30008A95D2F740955095609570958091EB02DB
:104B40009091EC02A091ED02B091EE028A019B01DE
:104B5000082319232A233B23C901B8011F910F9170
:104B60000C942E2620919C038095822380939C0395
:104B7000982F977079F430E0482F082E000C550BD1
:104B80002417350739F08595859585950E948D25E3
:104B900010929C0308950F931F9341E050E060E052
:104BA00070E004C0440F551F661F771F8A95D2F727
:104BB0008091EB029091EC02A091ED02B091EE0297
:104BC0008A019B01082B192B2A2B3B2BC901B80109
:104BD0001F910F910C942E260E942525292F2F70AE
:104BE00092959F70E92FF0E03297EE30F105B8F41E
:104BF000E257FF4F0C941C2B803F99F018F4883E2D
:104C000070F40FC0843F59F40CC0883E50F0813FCF
:104C100031F407C0822F869586958695089580E0A9
:104C2000089581E0089510929E0310929D030E94C2
:104C30009E24E2EDF2E086E0DF011D928A95E9F71D
:104C40001092D8021092A9030E94212380E090E0E4
:104C50000E94C91F80E090E00C94B31FCF92DF92B6
:104C6000EF92FF92CF93DF9300D000D0CDB7DEB7A5
:104C70000E94880F6B017C018091EF02882321F054
:104C80008091F002811115C0C092EB02D092EC022B
:104C9000E092ED02F092EE020E9413260F900F9028
:104CA0000F900F90DF91CF91FF90EF90DF90CF901A
:104CB0000895198282E08A83C701B6010E944824C0
:104CC0008B838EEF8C8364E0CE0101960E947B2162
:104CD000DBCF6093A1037093A2038093A30390930F
:104CE000A4030C9413268091E3039091B2038917D7
:104CF00019F08F5F8770FBCF08958091B103829583
:104D00008F7009F054C08091AE03882309F44FC01E
:104D10008091E303A091B2036091AC037091AD0365
:104D20004091AF035091B003B6E08A1709F43FC039
:104D300090E041155105C1F17F3F11F46F3FA1F1A2
:104D4000B89FF001B99FF00D1124ED54FC4F218163
:104D500072132AC02081621327C02281211124C02E
:104D6000238134812417350710F421503109241B85
:104D7000350B283C3105C0F42091B1032F70206120
:104D80002093B10326E0289FF001299FF00D112404
:104D9000E854FC4F80818F70806180838CEA93E0BF
:104DA0000E940E040C94732601968770BECF08955E
:104DB000BF92CF92DF92EF92FF920F931F93CF9308
:104DC000DF93CDB7DEB761970FB6F894DEBF0FBEA5
:104DD000CDBF8C0185E0F801DE011D9601900D929A
:104DE0008A95E1F7D8013C9111962C911197129672
:104DF000EC9012971396CD90DC9014975091AC03E1
:104E00006091AD038091AF039091B003009709F4D6
:104E10004FC16F3F19F45F3F09F44AC1B090AE0330
:104E2000BB2009F4ECC04091B103C816D90628F0A4
:104E3000F601E81BF90BCF0104C0809590958C0D0D
:104E40009D1DFF24F394883C910548F0F12C407F90
:104E500009F09FC08CEA93E00E940E0421C1842FC8
:104E6000807F09F044C0621312C0531310C0E110D8
:104E70000EC04F7040614093B1038CEA93E00E94F2
:104E80000E048091B103D80115968C932EC0CD28C5
:104E900019F12F3F11F43F3FF9F0FE2CE1101CC037
:104EA0008091E3034091B20356E0841709F458C09F
:104EB00090E0589FF001599FF00D1124ED54FC4FE4
:104EC0006181261306C06081361303C062816111BF
:104ED00003C001968770E9CFFE2CEE2009F421C1B2
:104EE0008091B10381608093B103F12C1AC16213E8
:104EF0000AC0531308C0E11006C08091B103D80165
:104F000015968C93B0C03D872E878D859E850E9417
:104F1000EC258823D1F1EE20C1F12091B103822F3D
:104F200082958F7090E0029774F08091AC0390911D
:104F3000AD0398878F831986DB86CA862C87CE01BE
:104F400007960E940E0486E0F801ACEAB3E00190F7
:104F50000D928A95E1F70E947D26FF24F394E1C02B
:104F60003D872E878D859E850E942525292F229598
:104F70002F7030E0223031050CF0C7C09F7009F06F
:104F8000C1C0805E883008F4CCC0C8010E940E0405
:104F9000E4CF621314C0531312C0E11010C080910B
:104FA000B103F8018583C8010E940E0486E0ECEA93
:104FB000F3E0DF011D928A95E9F7FB2CB2C03D8733
:104FC0002E878D859E850E94EC258823F1F2EE20A8
:104FD000E1F22091B103822F82958F7090E00297C9
:104FE0000CF4B1CF8091AC039091AD039A83898387
:104FF0001B82DD82CC822E83CE010196A2CFC81601
:10500000D90638F0C81AD90AB8ECCB16D10450F03A
:1050100007C0809590958C0D9D1D883C910510F0E2
:10502000F12C3EC0FE2CEE2009F4AFCF621327C056
:10503000531325C02091B10320FD18C0822F829503
:105040008F70482F50E04115510581F0F8012583FC
:105050004F30510541F08F5F982F9295907F822FAE
:105060008F70892B8583C8010E940E0486E0F801A9
:10507000ACEAB3E001900D928A95E1F752C03D870A
:105080002E878D859E850E94EC2581115CCF8091B5
:10509000B10381608093B103C8010E940E0441C036
:1050A000ECEAF3E086E0DF011D928A95E9F739C06A
:1050B000EE2009F46ACF3D872E878D859E850E945C
:1050C000EC25F82E882309F460CF86E0F801ACEADD
:1050D000B3E001900D928A95E1F78091AC03909135
:1050E000AD030E94252592959F70963041F48091E2
:1050F000AB0391E089278093AB039093AA030E94AE
:105100007D260FC081113DCF0CC0243031050CF03D
:105110003CCF9F7009F435CFF8019581907F09F05D
:1051200030CF8F2D61960FB6F894DEBF0FBECDBF86
:10513000DF91CF911F910F91FF90EF90DF90CF9073
:10514000BF90089510929F0380910601882331F04B
:105150008091B60287FF02C08EE101C086E0E7E4DD
:10516000F3E0DF011D928A95E9F70C94132688235A
:1051700041F0809590919E03892380939E030C9427
:105180009E240895882339F090919E03892B809363
:105190009E030C949E240895882341F0809590915D
:1051A0009F03892380939F030C949E240895882352
:1051B00039F090919F03892B80939F030C949E2438
:1051C0000895CF93C82F0E945B29C93349F42FEF6C
:1051D00087EE93E0215080409040E1F700C000004E
:1051E0008C2FCF910C94F428882309F463C0823863
:1051F00069F40E94DF1F81FF5DC069E385E493E0ED
:105200000E948B230E949E2469E30EC0833891F490
:105210000E94DF1F80FF4EC063E585E493E00E949B
:105220008B230E949E2463E585E493E00E94602323
:105230000C949E24843869F40E94DF1F82FF3AC0D8
:1052400067E485E493E00E948B230E949E2467E438
:10525000EBCF9CEF980F913A10F4682FE5CF90E2D6
:10526000980F983088F4877021E030E0A90102C0DF
:10527000440F551F8A95E2F7CA01809590919F03CC
:10528000892380939F03D4CF9BE5980F933020F41C
:1052900080E090E00C94C91F98E5980F973120F4B6
:1052A00080E090E00C94B31F803F20F00E94932197
:1052B0000C9421230895882309F489C08238B1F41D
:1052C0000E94DF1F81FD83C069E385E493E00E94B3
:1052D0008B230E949E242FEF41EE54E0215040404A
:1052E0005040E1F700C0000069E317C08338D9F4EB
:1052F0000E94DF1F80FD6BC063E585E493E00E94A0
:105300008B230E949E248FEF91EE24E081509040E9
:105310002040E1F700C0000063E585E493E00E94CF
:1053200060230C949E248438B1F40E94DF1F82FD18
:105330004EC067E485E493E00E948B230E949E2484
:105340004FEF51EE84E0415050408040E1F700C003
:10535000000067E4E2CF9CEF980F913A30F4682F99
:1053600085E493E00E948B23DCCF90E2980F983085
:1053700080F4877021E030E0A90102C0440F551F7E
:105380008A95E2F7CA0190919F03892B80939F032E
:10539000C8CFEBE5E80FE33038F4F0E0E65DFD4F11
:1053A000808190E00C94C91FE8E5E80FE73148F4EC
:1053B000F0E0EE0FFF1FE35DFD4F808191810C94C3
:1053C000B31F803F20F00E945D220C94212308959A
:1053D0001092B9008CE08093B8000895EF92FF928C
:1053E0000F931F93CF93DF93182FEB011092BC0004
:1053F00084EA8093BC000E9415237C019091BC003C
:1054000097FD0EC0CF3F8FEFD807C1F30E94152341
:105410008E199F098C179D0788F38EEF9FEF2EC082
:105420009091B900987F983041F09091B900987FA1
:10543000903119F08FEF9FEF21C01093BB0084E8EB
:105440008093BC000E9415238C019091BC0097FDB5
:105450000CC0CF3F8FEFD807C1F30E941523801BEC
:10546000910B8C179D0788F3D8CF8091B900887F66
:10547000883111F08034F1F680E090E0DF91CF9137
:105480001F910F91FF90EF9008950F931F93CF936B
:10549000DF93EB018093BB0084E88093BC000E9403
:1054A00015238C019091BC0097FD0EC0CF3F8FEF6C
:1054B000D807C1F30E941523801B910B8C179D0701
:1054C00088F38EEF9FEF0CC02091B900287F81E018
:1054D00090E0283211F480E090E091958195910957
:1054E000DF91CF911F910F9108950F931F93CF9349
:1054F000DF93EC0184E88093BC000E9415238C01AB
:105500009091BC0097FD0EC0CF3F8FEFD807C1F33D
:105510000E941523801B910B8C179D0788F38EEF3B
:105520009FEF03C08091BB0090E0DF91CF911F916E
:105530000F91089584E98093BC000895F999FECFF6
:1055400092BD81BDF89A992780B50895A6E1B0E093
:1055500044E050E00C94D82AA8E1B0E042E050E0EA
:105560000C94D82A262FF999FECF92BD81BDF89AC6
:10557000019700B4021639F01FBA20BD0FB6F89497
:10558000FA9AF99A0FBE08950396272F0E94B32A1C
:105590000E94B22A252F0E94B32A242F0C94B32AEA
:1055A0000196272F0E94B32A0C94B22ADC01CB016A
:1055B000FC01F999FECF06C0F2BDE1BDF89A319623
:1055C00000B40D9241505040B8F7089587FB082E63
:1055D000062687FD819567FD61950E94222B0EF4BA
:1055E000919507FC81950895AA1BBB1B51E107C04B
:1055F000AA1FBB1FA617B70710F0A61BB70B881F63
:10560000991F5A95A9F780959095BC01CD010895F1
:1056100097FB072E16F4009407D077FD09D00E945F
:10562000F42A07FC05D03EF4909581959F4F08958C
:10563000709561957F4F0895EE0FFF1F0590F491CF
:10564000E02D0994991B79E004C0991F961708F082
:10565000961B881F7A95C9F780950895CF93DF939D
:105660008230910510F482E090E0E091E603F09141
:10567000E70320E030E0C0E0D0E0309711F1408156
:10568000518148175907C0F04817590761F48281C2
:105690009381209719F09B838A832BC09093E70313
:1056A0008093E60326C02115310519F042175307F0
:1056B00018F49A01BE01DF01EF010280F381E02DB1
:1056C000DCCF2115310509F1281B390B24303105B8
:1056D00090F412968D919C9113976115710521F0AC
:1056E000FB019383828304C09093E7038093E603D6
:1056F000FD01329644C0FD01E20FF31F81939193A7
:10570000225031092D933C933AC02091E40330910B
:10571000E503232B41F420910201309103013093E2
:10572000E5032093E403209100013091010121154C
:10573000310541F42DB73EB7409104015091050168
:10574000241B350BE091E403F091E503E217F30726
:10575000A0F42E1B3F0B2817390778F0AC014E5FE1
:105760005F4F2417350748F04E0F5F1F5093E50336
:105770004093E4038193919302C0E0E0F0E0CF0115
:10578000DF91CF9108950F931F93CF93DF930097ED
:1057900009F48CC0FC013297138212820091E60357
:1057A0001091E7030115110581F420813181820FE9
:1057B000931F2091E4033091E5032817390779F509
:1057C000F093E503E093E40371C0D80140E050E0BA
:1057D000AE17BF0750F412962D913C911397AD016F
:1057E0002115310509F1D901F3CF9D01DA01338388
:1057F000228360817181860F971F8217930769F456
:10580000EC0128813981260F371F2E5F3F4F3183EE
:1058100020838A819B8193838283452B29F4F09393
:10582000E703E093E60342C01396FC93EE931297CE
:10583000ED01499159919E01240F351FE217F3079D
:1058400071F480819181840F951F029611969C932B
:105850008E938281938113969C938E931297E0E0AE
:10586000F0E0D80112968D919C911397009719F052
:10587000F8018C01F6CF8D919C9198012E5F3F4FDE
:10588000820F931F2091E4033091E5032817390715
:1058900069F4309729F41092E7031092E60302C0EE
:1058A000138212821093E5030093E403DF91CF91FA
:1058B0001F910F910895FC014150504030F001902C
:1058C0000616D1F73197CF010895882799270895B3
:0458D000F894FFCF7A
:1058D4000000E80320000120007821F418C918C34F
:1058E40018B11801191A1B1C1D1E1F2021220102A8
:1058F400818283E200E900EA00B500B600B700CD7A
:10590400008301CC008A0192019401210223022424
:10591400022502260227022A02B300B4006F007097
:1059240000445A4B47372F58455045420000010266
:105934000202020606060909090909090F0F0F0FD9
:105944000F0F1515151819191919191919191919E4
:105954002324000D010D020D030D040D050D000C93
:10596400010C020C030C040C050C000B010B020BC4
:10597400030B040B050B000A010A020A030A040ABA
:10598400050A0009010902090309040905090008B7
:1059940001080208030804080508000701070207B4
:1059A40003070407050700060106020603060406AA
:1059B40005060005010502050305040505050004A7
:1059C40001040204030404040504000301030203A4
:1059D400030304030503000201020202030204029A
:1059E4000502000101010201030104010501000097
:1059F40001000200030004000500818283E200E943
:105A040000EA00B500B600B700CD008301CC008ADF
:105A14000192019401210223022402250226022775
:0C5A2400022A02B300B4006F0070000002
:00000001FF
